{
  "contractName": "JobBoard",
  "abi": [
    {
      "inputs": [],
      "stateMutability": "nonpayable",
      "type": "constructor"
    },
    {
      "inputs": [
        {
          "internalType": "address",
          "name": "owner",
          "type": "address"
        }
      ],
      "name": "OwnableInvalidOwner",
      "type": "error"
    },
    {
      "inputs": [
        {
          "internalType": "address",
          "name": "account",
          "type": "address"
        }
      ],
      "name": "OwnableUnauthorizedAccount",
      "type": "error"
    },
    {
      "inputs": [],
      "name": "ReentrancyGuardReentrantCall",
      "type": "error"
    },
    {
      "anonymous": false,
      "inputs": [
        {
          "indexed": true,
          "internalType": "uint256",
          "name": "jobId",
          "type": "uint256"
        },
        {
          "indexed": true,
          "internalType": "address",
          "name": "initiator",
          "type": "address"
        }
      ],
      "name": "DisputeRaised",
      "type": "event"
    },
    {
      "anonymous": false,
      "inputs": [
        {
          "indexed": true,
          "internalType": "uint256",
          "name": "jobId",
          "type": "uint256"
        },
        {
          "indexed": true,
          "internalType": "address",
          "name": "admin",
          "type": "address"
        },
        {
          "indexed": true,
          "internalType": "address",
          "name": "winner",
          "type": "address"
        },
        {
          "indexed": false,
          "internalType": "uint256",
          "name": "amount",
          "type": "uint256"
        }
      ],
      "name": "DisputeResolved",
      "type": "event"
    },
    {
      "anonymous": false,
      "inputs": [
        {
          "indexed": true,
          "internalType": "uint256",
          "name": "jobId",
          "type": "uint256"
        },
        {
          "indexed": true,
          "internalType": "address",
          "name": "employer",
          "type": "address"
        },
        {
          "indexed": false,
          "internalType": "uint256",
          "name": "amount",
          "type": "uint256"
        }
      ],
      "name": "EmployerRefunded",
      "type": "event"
    },
    {
      "anonymous": false,
      "inputs": [
        {
          "indexed": true,
          "internalType": "uint256",
          "name": "jobId",
          "type": "uint256"
        },
        {
          "indexed": true,
          "internalType": "address",
          "name": "freelancer",
          "type": "address"
        }
      ],
      "name": "JobApplied",
      "type": "event"
    },
    {
      "anonymous": false,
      "inputs": [
        {
          "indexed": true,
          "internalType": "uint256",
          "name": "jobId",
          "type": "uint256"
        },
        {
          "indexed": true,
          "internalType": "address",
          "name": "employer",
          "type": "address"
        },
        {
          "indexed": false,
          "internalType": "string",
          "name": "title",
          "type": "string"
        },
        {
          "indexed": false,
          "internalType": "uint256",
          "name": "budget",
          "type": "uint256"
        },
        {
          "indexed": false,
          "internalType": "string",
          "name": "descriptionCID",
          "type": "string"
        }
      ],
      "name": "JobPosted",
      "type": "event"
    },
    {
      "anonymous": false,
      "inputs": [
        {
          "indexed": true,
          "internalType": "address",
          "name": "previousOwner",
          "type": "address"
        },
        {
          "indexed": true,
          "internalType": "address",
          "name": "newOwner",
          "type": "address"
        }
      ],
      "name": "OwnershipTransferred",
      "type": "event"
    },
    {
      "anonymous": false,
      "inputs": [
        {
          "indexed": true,
          "internalType": "uint256",
          "name": "jobId",
          "type": "uint256"
        },
        {
          "indexed": true,
          "internalType": "address",
          "name": "employer",
          "type": "address"
        },
        {
          "indexed": false,
          "internalType": "uint256",
          "name": "amount",
          "type": "uint256"
        }
      ],
      "name": "PaymentEscrowed",
      "type": "event"
    },
    {
      "anonymous": false,
      "inputs": [
        {
          "indexed": true,
          "internalType": "uint256",
          "name": "jobId",
          "type": "uint256"
        },
        {
          "indexed": true,
          "internalType": "address",
          "name": "freelancer",
          "type": "address"
        },
        {
          "indexed": false,
          "internalType": "uint256",
          "name": "amount",
          "type": "uint256"
        }
      ],
      "name": "PaymentReleased",
      "type": "event"
    },
    {
      "anonymous": false,
      "inputs": [
        {
          "indexed": true,
          "internalType": "uint256",
          "name": "jobId",
          "type": "uint256"
        },
        {
          "indexed": true,
          "internalType": "address",
          "name": "freelancer",
          "type": "address"
        }
      ],
      "name": "WorkSubmitted",
      "type": "event"
    },
    {
      "inputs": [],
      "name": "REFUND_DELAY",
      "outputs": [
        {
          "internalType": "uint256",
          "name": "",
          "type": "uint256"
        }
      ],
      "stateMutability": "view",
      "type": "function"
    },
    {
      "inputs": [
        {
          "internalType": "uint256",
          "name": "",
          "type": "uint256"
        }
      ],
      "name": "escrowedFunds",
      "outputs": [
        {
          "internalType": "uint256",
          "name": "",
          "type": "uint256"
        }
      ],
      "stateMutability": "view",
      "type": "function"
    },
    {
      "inputs": [],
      "name": "jobCount",
      "outputs": [
        {
          "internalType": "uint256",
          "name": "",
          "type": "uint256"
        }
      ],
      "stateMutability": "view",
      "type": "function"
    },
    {
      "inputs": [
        {
          "internalType": "uint256",
          "name": "",
          "type": "uint256"
        }
      ],
      "name": "jobs",
      "outputs": [
        {
          "internalType": "uint256",
          "name": "id",
          "type": "uint256"
        },
        {
          "internalType": "string",
          "name": "title",
          "type": "string"
        },
        {
          "internalType": "string",
          "name": "descriptionCID",
          "type": "string"
        },
        {
          "internalType": "uint256",
          "name": "budget",
          "type": "uint256"
        },
        {
          "internalType": "address payable",
          "name": "employer",
          "type": "address"
        },
        {
          "internalType": "address payable",
          "name": "freelancer",
          "type": "address"
        },
        {
          "internalType": "enum JobBoard.JobStatus",
          "name": "status",
          "type": "uint8"
        },
        {
          "internalType": "uint256",
          "name": "escrowTime",
          "type": "uint256"
        }
      ],
      "stateMutability": "view",
      "type": "function"
    },
    {
      "inputs": [],
      "name": "owner",
      "outputs": [
        {
          "internalType": "address",
          "name": "",
          "type": "address"
        }
      ],
      "stateMutability": "view",
      "type": "function"
    },
    {
      "inputs": [],
      "name": "renounceOwnership",
      "outputs": [],
      "stateMutability": "nonpayable",
      "type": "function"
    },
    {
      "inputs": [
        {
          "internalType": "address",
          "name": "newOwner",
          "type": "address"
        }
      ],
      "name": "transferOwnership",
      "outputs": [],
      "stateMutability": "nonpayable",
      "type": "function"
    },
    {
      "inputs": [
        {
          "internalType": "string",
          "name": "_title",
          "type": "string"
        },
        {
          "internalType": "string",
          "name": "_descriptionCID",
          "type": "string"
        },
        {
          "internalType": "uint256",
          "name": "_budget",
          "type": "uint256"
        }
      ],
      "name": "postJob",
      "outputs": [],
      "stateMutability": "nonpayable",
      "type": "function"
    },
    {
      "inputs": [
        {
          "internalType": "uint256",
          "name": "_jobId",
          "type": "uint256"
        }
      ],
      "name": "escrowFunds",
      "outputs": [],
      "stateMutability": "payable",
      "type": "function"
    },
    {
      "inputs": [
        {
          "internalType": "uint256",
          "name": "_jobId",
          "type": "uint256"
        }
      ],
      "name": "applyForJob",
      "outputs": [],
      "stateMutability": "nonpayable",
      "type": "function"
    },
    {
      "inputs": [
        {
          "internalType": "uint256",
          "name": "_jobId",
          "type": "uint256"
        }
      ],
      "name": "markWorkDone",
      "outputs": [],
      "stateMutability": "nonpayable",
      "type": "function"
    },
    {
      "inputs": [
        {
          "internalType": "uint256",
          "name": "_jobId",
          "type": "uint256"
        }
      ],
      "name": "releasePayment",
      "outputs": [],
      "stateMutability": "nonpayable",
      "type": "function"
    },
    {
      "inputs": [
        {
          "internalType": "uint256",
          "name": "_jobId",
          "type": "uint256"
        }
      ],
      "name": "refundEmployer",
      "outputs": [],
      "stateMutability": "nonpayable",
      "type": "function"
    },
    {
      "inputs": [
        {
          "internalType": "uint256",
          "name": "_jobId",
          "type": "uint256"
        }
      ],
      "name": "raiseDispute",
      "outputs": [],
      "stateMutability": "nonpayable",
      "type": "function"
    },
    {
      "inputs": [
        {
          "internalType": "uint256",
          "name": "_jobId",
          "type": "uint256"
        },
        {
          "internalType": "bool",
          "name": "_awardToFreelancer",
          "type": "bool"
        }
      ],
      "name": "resolveDispute",
      "outputs": [],
      "stateMutability": "nonpayable",
      "type": "function"
    },
    {
      "inputs": [],
      "name": "getJobCount",
      "outputs": [
        {
          "internalType": "uint256",
          "name": "",
          "type": "uint256"
        }
      ],
      "stateMutability": "view",
      "type": "function"
    },
    {
      "inputs": [
        {
          "internalType": "uint256",
          "name": "_jobId",
          "type": "uint256"
        }
      ],
      "name": "getJob",
      "outputs": [
        {
          "components": [
            {
              "internalType": "uint256",
              "name": "id",
              "type": "uint256"
            },
            {
              "internalType": "string",
              "name": "title",
              "type": "string"
            },
            {
              "internalType": "string",
              "name": "descriptionCID",
              "type": "string"
            },
            {
              "internalType": "uint256",
              "name": "budget",
              "type": "uint256"
            },
            {
              "internalType": "address payable",
              "name": "employer",
              "type": "address"
            },
            {
              "internalType": "address payable",
              "name": "freelancer",
              "type": "address"
            },
            {
              "internalType": "enum JobBoard.JobStatus",
              "name": "status",
              "type": "uint8"
            },
            {
              "internalType": "uint256",
              "name": "escrowTime",
              "type": "uint256"
            }
          ],
          "internalType": "struct JobBoard.Job",
          "name": "",
          "type": "tuple"
        }
      ],
      "stateMutability": "view",
      "type": "function"
    },
    {
      "inputs": [
        {
          "internalType": "uint256",
          "name": "_jobId",
          "type": "uint256"
        }
      ],
      "name": "getEscrowAmount",
      "outputs": [
        {
          "internalType": "uint256",
          "name": "",
          "type": "uint256"
        }
      ],
      "stateMutability": "view",
      "type": "function"
    }
  ],
  "bytecode": "0x608060405234801561000f575f80fd5b5060015f55338061003957604051631e4fbdf760e01b81525f600482015260240160405180910390fd5b61004281610048565b50610099565b600180546001600160a01b038381166001600160a01b0319831681179093556040519116919082907f8be0079c531659141344cd1fd0a4f28419497f9722a3daafe3b4186f6b6457e0905f90a35050565b61222d806100a65f395ff3fe608060405260043610610105575f3560e01c80638da5cb5b11610092578063bf22c45711610062578063bf22c457146102a8578063bfd3487d146102d4578063df7903ea146102f3578063e0c94ae514610312578063f2fde38b14610331575f80fd5b80638da5cb5b14610223578063a5c1674e1461024a578063b02b4a2f14610269578063b489e1471461027d575f80fd5b8063451ee191116100d8578063451ee1911461019d5780634c5d8a0f146101bc5780635c3b9c4a146101d1578063715018a6146101f057806388685cd914610204575f80fd5b8063180aedf314610109578063190da5951461014557806334013c401461016957806334b25ee21461017e575b5f80fd5b348015610114575f80fd5b50610128610123366004611cc2565b610350565b60405161013c989796959493929190611d50565b60405180910390f35b348015610150575f80fd5b5061015b62093a8081565b60405190815260200161013c565b61017c610177366004611cc2565b6104b0565b005b348015610189575f80fd5b5061017c610198366004611dbf565b6106b2565b3480156101a8575f80fd5b5061015b6101b7366004611cc2565b610aed565b3480156101c7575f80fd5b5061015b60025481565b3480156101dc575f80fd5b5061017c6101eb366004611e8e565b610b33565b3480156101fb575f80fd5b5061017c610d97565b34801561020f575f80fd5b5061017c61021e366004611cc2565b610daa565b34801561022e575f80fd5b506001546040516001600160a01b03909116815260200161013c565b348015610255575f80fd5b5061017c610264366004611cc2565b6110ae565b348015610274575f80fd5b5060025461015b565b348015610288575f80fd5b5061015b610297366004611cc2565b60046020525f908152604090205481565b3480156102b3575f80fd5b506102c76102c2366004611cc2565b611287565b60405161013c9190611ef6565b3480156102df575f80fd5b5061017c6102ee366004611cc2565b611477565b3480156102fe575f80fd5b5061017c61030d366004611cc2565b611605565b34801561031d575f80fd5b5061017c61032c366004611cc2565b61193d565b34801561033c575f80fd5b5061017c61034b366004611f9b565b611b7d565b60036020525f90815260409020805460018201805491929161037190611fc8565b80601f016020809104026020016040519081016040528092919081815260200182805461039d90611fc8565b80156103e85780601f106103bf576101008083540402835291602001916103e8565b820191905f5260205f20905b8154815290600101906020018083116103cb57829003601f168201915b5050505050908060020180546103fd90611fc8565b80601f016020809104026020016040519081016040528092919081815260200182805461042990611fc8565b80156104745780601f1061044b57610100808354040283529160200191610474565b820191905f5260205f20905b81548152906001019060200180831161045757829003601f168201915b50505050600383015460048401546005850154600690950154939491936001600160a01b03918216935090821691600160a01b900460ff169088565b805f811180156104c257506002548111155b6104e75760405162461bcd60e51b81526004016104de90611ffa565b60405180910390fd5b5f8281526003602052604090206004015482906001600160a01b031633146105215760405162461bcd60e51b81526004016104de90612031565b5f83815260036020526040812090600582810154600160a01b900460ff169081111561054f5761054f611d1c565b1461059c5760405162461bcd60e51b815260206004820152601a60248201527f4a6f62426f6172643a204a6f62206d757374206265206f70656e00000000000060448201526064016104de565b806003015434146106005760405162461bcd60e51b815260206004820152602860248201527f4a6f62426f6172643a2053656e7420455448206d757374206d61746368206a6f6044820152671888189d5919d95d60c21b60648201526084016104de565b5f848152600460205260409020541561065b5760405162461bcd60e51b815260206004820181905260248201527f4a6f62426f6172643a2046756e647320616c726561647920657363726f77656460448201526064016104de565b5f8481526004602090815260409182902034908190554260068501559151918252339186917f2f3c4f27eb1db28d21f423c207ea1f397503ab0c3399982719e036d008398c5891015b60405180910390a350505050565b6106ba611bba565b6106c2611be7565b5f821180156106d357506002548211155b6106ef5760405162461bcd60e51b81526004016104de90611ffa565b5f82815260036020908152604080832060049092529091205460058083810154600160a01b900460ff169081111561072957610729611d1c565b146107765760405162461bcd60e51b815260206004820152601c60248201527f4a6f62426f6172643a204a6f62206e6f7420696e20646973707574650000000060448201526064016104de565b5f81116107d55760405162461bcd60e51b815260206004820152602760248201527f4a6f62426f6172643a204e6f2066756e647320696e20657363726f7720746f206044820152667265736f6c766560c81b60648201526084016104de565b5f8481526004602052604081208190558084156109795760058401546001600160a01b03166108605760405162461bcd60e51b815260206004820152603160248201527f4a6f62426f6172643a2043616e6e6f7420617761726420746f206e6f6e2d657860448201527034b9ba32b73a10333932b2b630b731b2b960791b60648201526084016104de565b600584018054600360a01b60ff60a01b198216179091556040516001600160a01b039091169250829084905f81818185875af1925050503d805f81146108c1576040519150601f19603f3d011682016040523d82523d5f602084013e6108c6565b606091505b505080915050806109305760405162461bcd60e51b815260206004820152602e60248201527f4a6f62426f6172643a2044697370757465207061796d656e7420746f2066726560448201526d195b185b98d95c8819985a5b195960921b60648201526084016104de565b816001600160a01b0316867f21d71db5be59bb9fa133895586b7404307dd33fb93b16db09dc6f1d9d7d231b08560405161096c91815260200190565b60405180910390a3610a8e565b600484015460058501805460ff60a01b1916600160a21b1790556040516001600160a01b039091169250829084905f81818185875af1925050503d805f81146109dd576040519150601f19603f3d011682016040523d82523d5f602084013e6109e2565b606091505b50508091505080610a495760405162461bcd60e51b815260206004820152602b60248201527f4a6f62426f6172643a204469737075746520726566756e6420746f20656d706c60448201526a1bde595c8819985a5b195960aa1b60648201526084016104de565b816001600160a01b0316867f247610d3bde046554f9329011daf2554eeb232cd7627a9d22a04033084a6221485604051610a8591815260200190565b60405180910390a35b816001600160a01b0316336001600160a01b0316877f0db4b20cc119848dcb59f41527d8bc04945a341d861f69d3f693cd68cc532e6d86604051610ad491815260200190565b60405180910390a450505050610ae960015f55565b5050565b5f815f81118015610b0057506002548111155b610b1c5760405162461bcd60e51b81526004016104de90611ffa565b5f8381526004602052604090205491505b50919050565b5f835111610b835760405162461bcd60e51b815260206004820152601f60248201527f4a6f62426f6172643a205469746c652063616e6e6f7420626520656d7074790060448201526064016104de565b5f825111610be55760405162461bcd60e51b815260206004820152602960248201527f4a6f62426f6172643a204465736372697074696f6e204349442063616e6e6f7460448201526820626520656d70747960b81b60648201526084016104de565b5f8111610c445760405162461bcd60e51b815260206004820152602760248201527f4a6f62426f6172643a20427564676574206d75737420626520677265617465726044820152660207468616e20360cc1b60648201526084016104de565b60028054905f610c5383612089565b9091555050600254604080516101008101825282815260208101869052908101849052606081018390523360808201525f60a0820181905260c082019081525f6020918201819052838152600382526040902082518155908201516001820190610cbd90826120ee565b5060408201516002820190610cd290826120ee565b506060820151600382015560808201516004820180546001600160a01b03199081166001600160a01b039384161790915560a08401516005808501805493841692909416918217845560c086015193926001600160a81b03191690911790600160a01b908490811115610d4757610d47611d1c565b021790555060e08201518160060155905050336001600160a01b0316817f6e701c991596b35054fc54b175da04456f604588349048aaeaffc5030f25793d8685876040516106a4939291906121aa565b610d9f611bba565b610da85f611c0f565b565b805f81118015610dbc57506002548111155b610dd85760405162461bcd60e51b81526004016104de90611ffa565b5f8281526003602052604090206004015482906001600160a01b03163314610e125760405162461bcd60e51b81526004016104de90612031565b610e1a611be7565b5f8381526003602090815260408083206004909252909120546002600583810154600160a01b900460ff1690811115610e5557610e55611d1c565b14610ebf5760405162461bcd60e51b815260206004820152603460248201527f4a6f62426f6172643a20576f726b206d757374206265207375626d697474656460448201527320284157414954494e475f415050524f56414c2960601b60648201526084016104de565b60058201546001600160a01b0316610f195760405162461bcd60e51b815260206004820181905260248201527f4a6f62426f6172643a204e6f20667265656c616e6365722061737369676e656460448201526064016104de565b816003015481148015610f2b57505f81115b610f885760405162461bcd60e51b815260206004820152602860248201527f4a6f62426f6172643a20457363726f7720616d6f756e74206d69736d61746368604482015267206f72207a65726f60c01b60648201526084016104de565b60058201805460ff60a01b1916600360a01b1781555f868152600460205260408082208290559154915190916001600160a01b03169083908381818185875af1925050503d805f8114610ff6576040519150601f19603f3d011682016040523d82523d5f602084013e610ffb565b606091505b50509050806110565760405162461bcd60e51b815260206004820152602160248201527f4a6f62426f6172643a205061796d656e74207472616e73666572206661696c656044820152601960fa1b60648201526084016104de565b60058301546040518381526001600160a01b039091169087907f21d71db5be59bb9fa133895586b7404307dd33fb93b16db09dc6f1d9d7d231b0906020015b60405180910390a35050506110a960015f55565b505050565b805f811180156110c057506002548111155b6110dc5760405162461bcd60e51b81526004016104de90611ffa565b5f82815260036020526040902060048101546001600160a01b0316331480611110575060058101546001600160a01b031633145b6111825760405162461bcd60e51b815260206004820152603760248201527f4a6f62426f6172643a204f6e6c7920656d706c6f796572206f7220667265656c60448201527f616e6365722063616e207261697365206469737075746500000000000000000060648201526084016104de565b6001600582810154600160a01b900460ff16908111156111a4576111a4611d1c565b14806111cf57506002600582810154600160a01b900460ff16908111156111cd576111cd611d1c565b145b6112415760405162461bcd60e51b815260206004820152603e60248201527f4a6f62426f6172643a204a6f62206d7573742062652041535349474e4544206f60448201527f72204157414954494e475f415050524f56414c20746f2064697370757465000060648201526084016104de565b60058101805460ff60a01b1916600560a01b179055604051339084907f84a477df8a28a4276ca6dee4458a06c3015f30c477d9c949ede4e13ff8a552b4905f90a3505050565b61128f611c60565b815f811180156112a157506002548111155b6112bd5760405162461bcd60e51b81526004016104de90611ffa565b60035f8481526020019081526020015f20604051806101000160405290815f82015481526020016001820180546112f390611fc8565b80601f016020809104026020016040519081016040528092919081815260200182805461131f90611fc8565b801561136a5780601f106113415761010080835404028352916020019161136a565b820191905f5260205f20905b81548152906001019060200180831161134d57829003601f168201915b5050505050815260200160028201805461138390611fc8565b80601f01602080910402602001604051908101604052809291908181526020018280546113af90611fc8565b80156113fa5780601f106113d1576101008083540402835291602001916113fa565b820191905f5260205f20905b8154815290600101906020018083116113dd57829003601f168201915b50505091835250506003820154602082015260048201546001600160a01b0390811660408301526005808401549182166060840152608090920191600160a01b90910460ff169081111561145057611450611d1c565b600581111561146157611461611d1c565b8152602001600682015481525050915050919050565b805f8111801561148957506002548111155b6114a55760405162461bcd60e51b81526004016104de90611ffa565b6114ad611be7565b5f82815260036020526040902060058101546001600160a01b031633146115345760405162461bcd60e51b815260206004820152603560248201527f4a6f62426f6172643a204f6e6c792061737369676e656420667265656c616e6360448201527465722063616e206d61726b20776f726b20646f6e6560581b60648201526084016104de565b6001600582810154600160a01b900460ff169081111561155657611556611d1c565b146115ba5760405162461bcd60e51b815260206004820152602e60248201527f4a6f62426f6172643a204a6f62206d7573742062652041535349474e4544207460448201526d6f206d61726b20617320646f6e6560901b60648201526084016104de565b60058101805460ff60a01b1916600160a11b179055604051339084907f2e1034180f85502b3a04560be6ed4c24fe9b9c9e0bd7f4e09720494ac48859fa905f90a350610ae960015f55565b805f8111801561161757506002548111155b6116335760405162461bcd60e51b81526004016104de90611ffa565b5f8281526003602052604090206004015482906001600160a01b0316331461166d5760405162461bcd60e51b81526004016104de90612031565b611675611be7565b5f83815260036020908152604080832060049092528220549091600583810154600160a01b900460ff16908111156116af576116af611d1c565b146117185760405162461bcd60e51b815260206004820152603360248201527f4a6f62426f6172643a204a6f62206d757374206265206f70656e20286e6f20666044820152727265656c616e6365722061737369676e65642960681b60648201526084016104de565b5f81116117675760405162461bcd60e51b815260206004820152601b60248201527f4a6f62426f6172643a204e6f2066756e647320657363726f776564000000000060448201526064016104de565b5f8260060154116117c65760405162461bcd60e51b815260206004820152602360248201527f4a6f62426f6172643a2046756e64732077657265206e6576657220657363726f6044820152621dd95960ea1b60648201526084016104de565b62093a8082600601546117d991906121de565b4210156118325760405162461bcd60e51b815260206004820152602160248201527f4a6f62426f6172643a20526566756e642064656c6179206e6f742070617373656044820152601960fa1b60648201526084016104de565b60058201805460ff60a01b1916600160a21b1790555f8581526004602081905260408083208390559084015490516001600160a01b039091169083908381818185875af1925050503d805f81146118a4576040519150601f19603f3d011682016040523d82523d5f602084013e6118a9565b606091505b50509050806118fa5760405162461bcd60e51b815260206004820181905260248201527f4a6f62426f6172643a20526566756e64207472616e73666572206661696c656460448201526064016104de565b60048301546040518381526001600160a01b039091169087907f247610d3bde046554f9329011daf2554eeb232cd7627a9d22a04033084a6221490602001611095565b805f8111801561194f57506002548111155b61196b5760405162461bcd60e51b81526004016104de90611ffa565b5f82815260036020526040812090600582810154600160a01b900460ff169081111561199957611999611d1c565b146119e65760405162461bcd60e51b815260206004820152601960248201527f4a6f62426f6172643a204a6f62206973206e6f74206f70656e0000000000000060448201526064016104de565b60058101546001600160a01b031615611a415760405162461bcd60e51b815260206004820152601e60248201527f4a6f62426f6172643a204a6f6220616c72656164792061737369676e6564000060448201526064016104de565b60038101545f8481526004602052604090205414611ab25760405162461bcd60e51b815260206004820152602860248201527f4a6f62426f6172643a2046756e6473206e6f7420657363726f7765642062792060448201526732b6b83637bcb2b960c11b60648201526084016104de565b60048101546001600160a01b03163303611b285760405162461bcd60e51b815260206004820152603160248201527f4a6f62426f6172643a20456d706c6f7965722063616e6e6f74206170706c79206044820152703337b9103a3432b4b91037bbb7103537b160791b60648201526084016104de565b6005810180546001600160a81b0319163360ff60a01b19811691909117600160a01b1790915560405184907fffa837d183240a5f25cbd643a8eade702c0c9c3e186c59c7d929e4f1a3438d86905f90a3505050565b611b85611bba565b6001600160a01b038116611bae57604051631e4fbdf760e01b81525f60048201526024016104de565b611bb781611c0f565b50565b6001546001600160a01b03163314610da85760405163118cdaa760e01b81523360048201526024016104de565b60025f5403611c0957604051633ee5aeb560e01b815260040160405180910390fd5b60025f55565b600180546001600160a01b038381166001600160a01b0319831681179093556040519116919082907f8be0079c531659141344cd1fd0a4f28419497f9722a3daafe3b4186f6b6457e0905f90a35050565b6040518061010001604052805f815260200160608152602001606081526020015f81526020015f6001600160a01b031681526020015f6001600160a01b031681526020015f6005811115611cb657611cb6611d1c565b81526020015f81525090565b5f60208284031215611cd2575f80fd5b5035919050565b5f81518084525f5b81811015611cfd57602081850181015186830182015201611ce1565b505f602082860101526020601f19601f83011685010191505092915050565b634e487b7160e01b5f52602160045260245ffd5b60068110611d4c57634e487b7160e01b5f52602160045260245ffd5b9052565b5f6101008a8352806020840152611d698184018b611cd9565b90508281036040840152611d7d818a611cd9565b606084018990526001600160a01b038881166080860152871660a08501529150611dac905060c0830185611d30565b8260e08301529998505050505050505050565b5f8060408385031215611dd0575f80fd5b8235915060208301358015158114611de6575f80fd5b809150509250929050565b634e487b7160e01b5f52604160045260245ffd5b5f82601f830112611e14575f80fd5b813567ffffffffffffffff80821115611e2f57611e2f611df1565b604051601f8301601f19908116603f01168101908282118183101715611e5757611e57611df1565b81604052838152866020858801011115611e6f575f80fd5b836020870160208301375f602085830101528094505050505092915050565b5f805f60608486031215611ea0575f80fd5b833567ffffffffffffffff80821115611eb7575f80fd5b611ec387838801611e05565b94506020860135915080821115611ed8575f80fd5b50611ee586828701611e05565b925050604084013590509250925092565b60208152815160208201525f6020830151610100806040850152611f1e610120850183611cd9565b91506040850151601f19858403016060860152611f3b8382611cd9565b9250506060850151608085015260018060a01b0360808601511660a085015260a0850151611f7460c08601826001600160a01b03169052565b5060c0850151611f8760e0860182611d30565b5060e0949094015192909301919091525090565b5f60208284031215611fab575f80fd5b81356001600160a01b0381168114611fc1575f80fd5b9392505050565b600181811c90821680611fdc57607f821691505b602082108103610b2d57634e487b7160e01b5f52602260045260245ffd5b6020808252601c908201527f4a6f62426f6172643a204a6f6220646f6573206e6f7420657869737400000000604082015260600190565b60208082526024908201527f4a6f62426f6172643a2043616c6c6572206973206e6f742074686520656d706c60408201526337bcb2b960e11b606082015260800190565b634e487b7160e01b5f52601160045260245ffd5b5f6001820161209a5761209a612075565b5060010190565b601f8211156110a9575f81815260208120601f850160051c810160208610156120c75750805b601f850160051c820191505b818110156120e6578281556001016120d3565b505050505050565b815167ffffffffffffffff81111561210857612108611df1565b61211c816121168454611fc8565b846120a1565b602080601f83116001811461214f575f84156121385750858301515b5f19600386901b1c1916600185901b1785556120e6565b5f85815260208120601f198616915b8281101561217d5788860151825594840194600190910190840161215e565b508582101561219a57878501515f19600388901b60f8161c191681555b5050505050600190811b01905550565b606081525f6121bc6060830186611cd9565b84602084015282810360408401526121d48185611cd9565b9695505050505050565b808201808211156121f1576121f1612075565b9291505056fea26469706673582212206cdb888711d831d68fefb8d10b44c22f0bf3692b390de4ebc00835533fe17cdd64736f6c63430008150033",
  "immutableReferences": {},
  "source": "// SPDX-License-Identifier: MIT\r\npragma solidity ^0.8.21;\r\n\r\n// Import ReentrancyGuard for security and Ownable for admin control\r\nimport \"@openzeppelin/contracts/utils/ReentrancyGuard.sol\";\r\nimport \"@openzeppelin/contracts/access/Ownable.sol\";\r\n\r\n/**\r\n * @title JobBoard\r\n * @dev A smart contract for posting jobs, escrowing payments, assigning freelancers,\r\n * handling work submission, payment release, refunds, and dispute resolution.\r\n * Stores job descriptions off-chain using an IPFS CID.\r\n */\r\ncontract JobBoard is ReentrancyGuard, Ownable {\r\n\r\n    // Enum defining the possible states of a job\r\n    enum JobStatus { OPEN, ASSIGNED, AWAITING_APPROVAL, COMPLETED, REFUNDED, DISPUTED }\r\n\r\n    // Struct representing a job posting\r\n    struct Job {\r\n        uint256 id;             // Unique identifier for the job\r\n        string title;           // Title of the job\r\n        string descriptionCID;  // <<< CORRECTED: IPFS CID for the detailed description\r\n        uint256 budget;         // Budget for the job in wei\r\n        address payable employer; // Address of the employer who posted the job\r\n        address payable freelancer; // Address of the freelancer assigned (initially address(0))\r\n        JobStatus status;       // Current status of the job\r\n        uint256 escrowTime;     // Timestamp when funds were escrowed\r\n    }\r\n\r\n    uint256 public jobCount; // Counter for total jobs posted, used for assigning IDs\r\n    mapping(uint256 => Job) public jobs; // Mapping from job ID to Job struct\r\n    mapping(uint256 => uint256) public escrowedFunds; // Mapping from job ID to escrowed amount\r\n\r\n    uint256 public constant REFUND_DELAY = 7 days; // Delay before employer refund if OPEN\r\n\r\n    // --- Events ---\r\n    // <<< CORRECTED: Event includes descriptionCID >>>\r\n    event JobPosted(uint256 indexed jobId, address indexed employer, string title, uint256 budget, string descriptionCID);\r\n    event JobApplied(uint256 indexed jobId, address indexed freelancer);\r\n    event PaymentEscrowed(uint256 indexed jobId, address indexed employer, uint256 amount);\r\n    event PaymentReleased(uint256 indexed jobId, address indexed freelancer, uint256 amount);\r\n    event EmployerRefunded(uint256 indexed jobId, address indexed employer, uint256 amount);\r\n    event DisputeRaised(uint256 indexed jobId, address indexed initiator);\r\n    event DisputeResolved(uint256 indexed jobId, address indexed admin, address indexed winner, uint256 amount);\r\n    event WorkSubmitted(uint256 indexed jobId, address indexed freelancer);\r\n\r\n    // --- Modifiers ---\r\n    modifier onlyEmployer(uint256 _jobId) {\r\n        require(msg.sender == jobs[_jobId].employer, \"JobBoard: Caller is not the employer\");\r\n        _;\r\n    }\r\n\r\n    modifier jobExists(uint256 _jobId) {\r\n        require(_jobId > 0 && _jobId <= jobCount, \"JobBoard: Job does not exist\");\r\n        _;\r\n    }\r\n\r\n    constructor() Ownable(msg.sender) {}\r\n\r\n    // --- Core Functions ---\r\n\r\n    /**\r\n     * @notice Allows anyone to post a new job.\r\n     * @dev Creates a job entry storing description CID off-chain.\r\n     * @param _title The title of the job.\r\n     * @param _descriptionCID The IPFS CID for the job description. <<< CORRECTED PARAM NAME\r\n     * @param _budget The payment amount for the job in wei.\r\n     */\r\n    function postJob(\r\n        string memory _title,\r\n        string memory _descriptionCID, // <<< CORRECTED PARAM NAME\r\n        uint256 _budget\r\n    ) public {\r\n        require(bytes(_title).length > 0, \"JobBoard: Title cannot be empty\");\r\n        // <<< ADDED: Check if description CID is provided >>>\r\n        require(bytes(_descriptionCID).length > 0, \"JobBoard: Description CID cannot be empty\");\r\n        require(_budget > 0, \"JobBoard: Budget must be greater than 0\");\r\n\r\n        jobCount++;\r\n        uint256 currentJobId = jobCount;\r\n\r\n        // <<< CORRECTED: Typo 'jobS' fixed to 'jobs' >>>\r\n        // <<< CORRECTED: Struct assignment matches struct field name and param name >>>\r\n        jobs[currentJobId] = Job({\r\n            id: currentJobId,\r\n            title: _title,\r\n            descriptionCID: _descriptionCID, // Use correct field and param name\r\n            budget: _budget,\r\n            employer: payable(msg.sender),\r\n            freelancer: payable(address(0)), // No freelancer assigned initially\r\n            status: JobStatus.OPEN,\r\n            escrowTime: 0 // Escrow time is set when funds are actually escrowed\r\n        });\r\n\r\n        // <<< CORRECTED: Event emission includes descriptionCID >>>\r\n        emit JobPosted(currentJobId, msg.sender, _title, _budget, _descriptionCID);\r\n    }\r\n\r\n    /**\r\n     * @notice Allows the employer to escrow the payment for an open job.\r\n     * @param _jobId The ID of the job to escrow funds for.\r\n     */\r\n    function escrowFunds(uint256 _jobId) public payable jobExists(_jobId) onlyEmployer(_jobId) {\r\n        Job storage job = jobs[_jobId];\r\n\r\n        require(job.status == JobStatus.OPEN, \"JobBoard: Job must be open\");\r\n        require(msg.value == job.budget, \"JobBoard: Sent ETH must match job budget\");\r\n        require(escrowedFunds[_jobId] == 0, \"JobBoard: Funds already escrowed\");\r\n\r\n        escrowedFunds[_jobId] = msg.value;\r\n        job.escrowTime = block.timestamp;\r\n\r\n        emit PaymentEscrowed(_jobId, msg.sender, msg.value);\r\n    }\r\n\r\n    /**\r\n     * @notice Allows anyone (except employer) to apply for (be assigned to) an open, escrowed job.\r\n     * @param _jobId The ID of the job to apply for.\r\n     */\r\n    function applyForJob(uint256 _jobId) public jobExists(_jobId) {\r\n        Job storage job = jobs[_jobId];\r\n\r\n        require(job.status == JobStatus.OPEN, \"JobBoard: Job is not open\");\r\n        require(job.freelancer == address(0), \"JobBoard: Job already assigned\");\r\n        require(escrowedFunds[_jobId] == job.budget, \"JobBoard: Funds not escrowed by employer\");\r\n        require(msg.sender != job.employer, \"JobBoard: Employer cannot apply for their own job\");\r\n\r\n        job.freelancer = payable(msg.sender);\r\n        job.status = JobStatus.ASSIGNED;\r\n\r\n        emit JobApplied(_jobId, msg.sender);\r\n    }\r\n\r\n   /**\r\n    * @notice Allows the assigned freelancer to mark the work as completed (ready for approval).\r\n    * @param _jobId The ID of the job being marked as done.\r\n    */\r\n    function markWorkDone(uint256 _jobId) public jobExists(_jobId) nonReentrant {\r\n        Job storage job = jobs[_jobId];\r\n\r\n        require(msg.sender == job.freelancer, \"JobBoard: Only assigned freelancer can mark work done\");\r\n        require(job.status == JobStatus.ASSIGNED, \"JobBoard: Job must be ASSIGNED to mark as done\");\r\n\r\n        job.status = JobStatus.AWAITING_APPROVAL;\r\n\r\n        emit WorkSubmitted(_jobId, msg.sender);\r\n    }\r\n\r\n    /**\r\n     * @notice Allows the employer to release the escrowed payment to the freelancer after work submission.\r\n     * @param _jobId The ID of the job for which to release payment.\r\n     */\r\n    function releasePayment(uint256 _jobId) public jobExists(_jobId) onlyEmployer(_jobId) nonReentrant {\r\n        Job storage job = jobs[_jobId];\r\n        uint256 amount = escrowedFunds[_jobId];\r\n\r\n        require(job.status == JobStatus.AWAITING_APPROVAL, \"JobBoard: Work must be submitted (AWAITING_APPROVAL)\");\r\n        require(job.freelancer != address(0), \"JobBoard: No freelancer assigned\");\r\n        require(amount == job.budget && amount > 0, \"JobBoard: Escrow amount mismatch or zero\");\r\n\r\n        job.status = JobStatus.COMPLETED;\r\n        escrowedFunds[_jobId] = 0; // Clear escrow balance\r\n\r\n        (bool success, ) = job.freelancer.call{value: amount}(\"\");\r\n        require(success, \"JobBoard: Payment transfer failed\");\r\n\r\n        emit PaymentReleased(_jobId, job.freelancer, amount);\r\n    }\r\n\r\n    /**\r\n     * @notice Allows the employer to reclaim escrowed funds if the job is still OPEN after REFUND_DELAY.\r\n     * @param _jobId The ID of the job for which to request a refund.\r\n     */\r\n    function refundEmployer(uint256 _jobId) public jobExists(_jobId) onlyEmployer(_jobId) nonReentrant {\r\n        Job storage job = jobs[_jobId];\r\n        uint256 amount = escrowedFunds[_jobId];\r\n\r\n        require(job.status == JobStatus.OPEN, \"JobBoard: Job must be open (no freelancer assigned)\");\r\n        require(amount > 0, \"JobBoard: No funds escrowed\");\r\n        require(job.escrowTime > 0, \"JobBoard: Funds were never escrowed\"); // Sanity check\r\n        require(block.timestamp >= job.escrowTime + REFUND_DELAY, \"JobBoard: Refund delay not passed\");\r\n\r\n        job.status = JobStatus.REFUNDED;\r\n        escrowedFunds[_jobId] = 0; // Clear escrow balance\r\n\r\n        (bool success, ) = job.employer.call{value: amount}(\"\");\r\n        require(success, \"JobBoard: Refund transfer failed\");\r\n\r\n        emit EmployerRefunded(_jobId, job.employer, amount);\r\n    }\r\n\r\n    /**\r\n     * @notice Allows employer or freelancer to raise a dispute on ASSIGNED or AWAITING_APPROVAL jobs.\r\n     * @param _jobId The ID of the job to dispute.\r\n     */\r\n    function raiseDispute(uint256 _jobId) public jobExists(_jobId) {\r\n        Job storage job = jobs[_jobId];\r\n\r\n        require(msg.sender == job.employer || msg.sender == job.freelancer, \"JobBoard: Only employer or freelancer can raise dispute\");\r\n        require(job.status == JobStatus.ASSIGNED || job.status == JobStatus.AWAITING_APPROVAL, \"JobBoard: Job must be ASSIGNED or AWAITING_APPROVAL to dispute\");\r\n\r\n        job.status = JobStatus.DISPUTED;\r\n\r\n        emit DisputeRaised(_jobId, msg.sender);\r\n    }\r\n\r\n    /**\r\n     * @notice Allows the contract owner (admin) to resolve a dispute.\r\n     * @param _jobId The ID of the disputed job.\r\n     * @param _awardToFreelancer Boolean indicating if funds go to freelancer (true) or employer (false).\r\n     */\r\n    function resolveDispute(uint256 _jobId, bool _awardToFreelancer) public onlyOwner nonReentrant {\r\n        require(_jobId > 0 && _jobId <= jobCount, \"JobBoard: Job does not exist\"); // Keep basic check\r\n        Job storage job = jobs[_jobId];\r\n        uint256 amount = escrowedFunds[_jobId];\r\n\r\n        require(job.status == JobStatus.DISPUTED, \"JobBoard: Job not in dispute\");\r\n        require(amount > 0, \"JobBoard: No funds in escrow to resolve\");\r\n\r\n        escrowedFunds[_jobId] = 0; // Clear escrow\r\n\r\n        address payable winner;\r\n        bool success;\r\n\r\n        if (_awardToFreelancer) {\r\n            require(job.freelancer != address(0), \"JobBoard: Cannot award to non-existent freelancer\");\r\n            winner = job.freelancer;\r\n            job.status = JobStatus.COMPLETED; // Consider COMPLETED if freelancer wins dispute\r\n            (success, ) = winner.call{value: amount}(\"\");\r\n            require(success, \"JobBoard: Dispute payment to freelancer failed\");\r\n            emit PaymentReleased(_jobId, winner, amount);\r\n        } else {\r\n            winner = job.employer;\r\n            job.status = JobStatus.REFUNDED; // Consider REFUNDED if employer wins dispute\r\n            (success, ) = winner.call{value: amount}(\"\");\r\n            require(success, \"JobBoard: Dispute refund to employer failed\");\r\n            emit EmployerRefunded(_jobId, winner, amount);\r\n        }\r\n\r\n        emit DisputeResolved(_jobId, msg.sender, winner, amount);\r\n    }\r\n\r\n    // --- View Functions ---\r\n\r\n    function getJobCount() public view returns (uint256) {\r\n        return jobCount;\r\n    }\r\n\r\n    // Returns the job struct, now containing descriptionCID instead of description\r\n    function getJob(uint256 _jobId) public view jobExists(_jobId) returns (Job memory) {\r\n        return jobs[_jobId];\r\n    }\r\n\r\n    function getEscrowAmount(uint256 _jobId) public view jobExists(_jobId) returns (uint256) {\r\n        return escrowedFunds[_jobId];\r\n    }\r\n}",
  "sourcePath": "E:\\DecentralizedJobPortal\\backend\\contracts\\JobBoard.sol",
  "compiler": {
    "name": "solc",
    "version": "0.8.21+commit.d9974bed.Emscripten.clang"
  },
  "schemaVersion": "3.4.16",
  "updatedAt": "2025-04-26T08:17:10.316Z",
  "devdoc": {
    "details": "A smart contract for posting jobs, escrowing payments, assigning freelancers, handling work submission, payment release, refunds, and dispute resolution. Stores job descriptions off-chain using an IPFS CID.",
    "errors": {
      "OwnableInvalidOwner(address)": [
        {
          "details": "The owner is not a valid owner account. (eg. `address(0)`)"
        }
      ],
      "OwnableUnauthorizedAccount(address)": [
        {
          "details": "The caller account is not authorized to perform an operation."
        }
      ],
      "ReentrancyGuardReentrantCall()": [
        {
          "details": "Unauthorized reentrant call."
        }
      ]
    },
    "kind": "dev",
    "methods": {
      "applyForJob(uint256)": {
        "params": {
          "_jobId": "The ID of the job to apply for."
        }
      },
      "escrowFunds(uint256)": {
        "params": {
          "_jobId": "The ID of the job to escrow funds for."
        }
      },
      "markWorkDone(uint256)": {
        "params": {
          "_jobId": "The ID of the job being marked as done."
        }
      },
      "owner()": {
        "details": "Returns the address of the current owner."
      },
      "postJob(string,string,uint256)": {
        "details": "Creates a job entry storing description CID off-chain.",
        "params": {
          "_budget": "The payment amount for the job in wei.",
          "_descriptionCID": "The IPFS CID for the job description. <<< CORRECTED PARAM NAME",
          "_title": "The title of the job."
        }
      },
      "raiseDispute(uint256)": {
        "params": {
          "_jobId": "The ID of the job to dispute."
        }
      },
      "refundEmployer(uint256)": {
        "params": {
          "_jobId": "The ID of the job for which to request a refund."
        }
      },
      "releasePayment(uint256)": {
        "params": {
          "_jobId": "The ID of the job for which to release payment."
        }
      },
      "renounceOwnership()": {
        "details": "Leaves the contract without owner. It will not be possible to call `onlyOwner` functions. Can only be called by the current owner. NOTE: Renouncing ownership will leave the contract without an owner, thereby disabling any functionality that is only available to the owner."
      },
      "resolveDispute(uint256,bool)": {
        "params": {
          "_awardToFreelancer": "Boolean indicating if funds go to freelancer (true) or employer (false).",
          "_jobId": "The ID of the disputed job."
        }
      },
      "transferOwnership(address)": {
        "details": "Transfers ownership of the contract to a new account (`newOwner`). Can only be called by the current owner."
      }
    },
    "title": "JobBoard",
    "version": 1
  },
  "userdoc": {
    "kind": "user",
    "methods": {
      "applyForJob(uint256)": {
        "notice": "Allows anyone (except employer) to apply for (be assigned to) an open, escrowed job."
      },
      "escrowFunds(uint256)": {
        "notice": "Allows the employer to escrow the payment for an open job."
      },
      "markWorkDone(uint256)": {
        "notice": "Allows the assigned freelancer to mark the work as completed (ready for approval)."
      },
      "postJob(string,string,uint256)": {
        "notice": "Allows anyone to post a new job."
      },
      "raiseDispute(uint256)": {
        "notice": "Allows employer or freelancer to raise a dispute on ASSIGNED or AWAITING_APPROVAL jobs."
      },
      "refundEmployer(uint256)": {
        "notice": "Allows the employer to reclaim escrowed funds if the job is still OPEN after REFUND_DELAY."
      },
      "releasePayment(uint256)": {
        "notice": "Allows the employer to release the escrowed payment to the freelancer after work submission."
      },
      "resolveDispute(uint256,bool)": {
        "notice": "Allows the contract owner (admin) to resolve a dispute."
      }
    },
    "version": 1
  }
}