{
  "contractName": "JobBoard",
  "abi": [
    {
      "inputs": [],
      "stateMutability": "nonpayable",
      "type": "constructor"
    },
    {
      "inputs": [
        {
          "internalType": "address",
          "name": "owner",
          "type": "address"
        }
      ],
      "name": "OwnableInvalidOwner",
      "type": "error"
    },
    {
      "inputs": [
        {
          "internalType": "address",
          "name": "account",
          "type": "address"
        }
      ],
      "name": "OwnableUnauthorizedAccount",
      "type": "error"
    },
    {
      "inputs": [],
      "name": "ReentrancyGuardReentrantCall",
      "type": "error"
    },
    {
      "anonymous": false,
      "inputs": [
        {
          "indexed": true,
          "internalType": "uint256",
          "name": "jobId",
          "type": "uint256"
        },
        {
          "indexed": true,
          "internalType": "address",
          "name": "applicant",
          "type": "address"
        },
        {
          "indexed": false,
          "internalType": "string",
          "name": "applicationCID",
          "type": "string"
        }
      ],
      "name": "ApplicationSubmitted",
      "type": "event"
    },
    {
      "anonymous": false,
      "inputs": [
        {
          "indexed": true,
          "internalType": "uint256",
          "name": "jobId",
          "type": "uint256"
        },
        {
          "indexed": true,
          "internalType": "address",
          "name": "freelancer",
          "type": "address"
        }
      ],
      "name": "ApplicationWithdrawn",
      "type": "event"
    },
    {
      "anonymous": false,
      "inputs": [
        {
          "indexed": true,
          "internalType": "uint256",
          "name": "jobId",
          "type": "uint256"
        },
        {
          "indexed": true,
          "internalType": "address",
          "name": "initiator",
          "type": "address"
        }
      ],
      "name": "DisputeRaised",
      "type": "event"
    },
    {
      "anonymous": false,
      "inputs": [
        {
          "indexed": true,
          "internalType": "uint256",
          "name": "jobId",
          "type": "uint256"
        },
        {
          "indexed": true,
          "internalType": "address",
          "name": "admin",
          "type": "address"
        },
        {
          "indexed": true,
          "internalType": "address",
          "name": "winner",
          "type": "address"
        },
        {
          "indexed": false,
          "internalType": "uint256",
          "name": "amount",
          "type": "uint256"
        }
      ],
      "name": "DisputeResolved",
      "type": "event"
    },
    {
      "anonymous": false,
      "inputs": [
        {
          "indexed": true,
          "internalType": "uint256",
          "name": "jobId",
          "type": "uint256"
        },
        {
          "indexed": true,
          "internalType": "address",
          "name": "employer",
          "type": "address"
        },
        {
          "indexed": false,
          "internalType": "uint256",
          "name": "amount",
          "type": "uint256"
        }
      ],
      "name": "EmployerRefunded",
      "type": "event"
    },
    {
      "anonymous": false,
      "inputs": [
        {
          "indexed": true,
          "internalType": "uint256",
          "name": "jobId",
          "type": "uint256"
        },
        {
          "indexed": true,
          "internalType": "address",
          "name": "freelancer",
          "type": "address"
        }
      ],
      "name": "JobAssigned",
      "type": "event"
    },
    {
      "anonymous": false,
      "inputs": [
        {
          "indexed": true,
          "internalType": "uint256",
          "name": "jobId",
          "type": "uint256"
        }
      ],
      "name": "JobDeleted",
      "type": "event"
    },
    {
      "anonymous": false,
      "inputs": [
        {
          "indexed": true,
          "internalType": "uint256",
          "name": "jobId",
          "type": "uint256"
        },
        {
          "indexed": true,
          "internalType": "address",
          "name": "employer",
          "type": "address"
        },
        {
          "indexed": false,
          "internalType": "string",
          "name": "title",
          "type": "string"
        },
        {
          "indexed": false,
          "internalType": "uint256",
          "name": "budget",
          "type": "uint256"
        },
        {
          "indexed": false,
          "internalType": "string",
          "name": "descriptionCID",
          "type": "string"
        }
      ],
      "name": "JobPosted",
      "type": "event"
    },
    {
      "anonymous": false,
      "inputs": [
        {
          "indexed": true,
          "internalType": "address",
          "name": "previousOwner",
          "type": "address"
        },
        {
          "indexed": true,
          "internalType": "address",
          "name": "newOwner",
          "type": "address"
        }
      ],
      "name": "OwnershipTransferred",
      "type": "event"
    },
    {
      "anonymous": false,
      "inputs": [
        {
          "indexed": true,
          "internalType": "uint256",
          "name": "jobId",
          "type": "uint256"
        },
        {
          "indexed": true,
          "internalType": "address",
          "name": "employer",
          "type": "address"
        },
        {
          "indexed": false,
          "internalType": "uint256",
          "name": "amount",
          "type": "uint256"
        }
      ],
      "name": "PaymentEscrowed",
      "type": "event"
    },
    {
      "anonymous": false,
      "inputs": [
        {
          "indexed": true,
          "internalType": "uint256",
          "name": "jobId",
          "type": "uint256"
        },
        {
          "indexed": true,
          "internalType": "address",
          "name": "freelancer",
          "type": "address"
        },
        {
          "indexed": false,
          "internalType": "uint256",
          "name": "amount",
          "type": "uint256"
        }
      ],
      "name": "PaymentReleased",
      "type": "event"
    },
    {
      "anonymous": false,
      "inputs": [
        {
          "indexed": true,
          "internalType": "uint256",
          "name": "jobId",
          "type": "uint256"
        },
        {
          "indexed": true,
          "internalType": "address",
          "name": "freelancer",
          "type": "address"
        }
      ],
      "name": "WorkSubmitted",
      "type": "event"
    },
    {
      "inputs": [],
      "name": "REFUND_DELAY",
      "outputs": [
        {
          "internalType": "uint256",
          "name": "",
          "type": "uint256"
        }
      ],
      "stateMutability": "view",
      "type": "function",
      "constant": true
    },
    {
      "inputs": [
        {
          "internalType": "uint256",
          "name": "",
          "type": "uint256"
        }
      ],
      "name": "escrowedFunds",
      "outputs": [
        {
          "internalType": "uint256",
          "name": "",
          "type": "uint256"
        }
      ],
      "stateMutability": "view",
      "type": "function",
      "constant": true
    },
    {
      "inputs": [],
      "name": "jobCount",
      "outputs": [
        {
          "internalType": "uint256",
          "name": "",
          "type": "uint256"
        }
      ],
      "stateMutability": "view",
      "type": "function",
      "constant": true
    },
    {
      "inputs": [
        {
          "internalType": "uint256",
          "name": "",
          "type": "uint256"
        }
      ],
      "name": "jobs",
      "outputs": [
        {
          "internalType": "uint256",
          "name": "id",
          "type": "uint256"
        },
        {
          "internalType": "string",
          "name": "title",
          "type": "string"
        },
        {
          "internalType": "string",
          "name": "descriptionCID",
          "type": "string"
        },
        {
          "internalType": "uint256",
          "name": "budget",
          "type": "uint256"
        },
        {
          "internalType": "address payable",
          "name": "employer",
          "type": "address"
        },
        {
          "internalType": "address payable",
          "name": "freelancer",
          "type": "address"
        },
        {
          "internalType": "enum JobBoard.JobStatus",
          "name": "status",
          "type": "uint8"
        },
        {
          "internalType": "uint256",
          "name": "escrowTime",
          "type": "uint256"
        }
      ],
      "stateMutability": "view",
      "type": "function",
      "constant": true
    },
    {
      "inputs": [],
      "name": "owner",
      "outputs": [
        {
          "internalType": "address",
          "name": "",
          "type": "address"
        }
      ],
      "stateMutability": "view",
      "type": "function",
      "constant": true
    },
    {
      "inputs": [],
      "name": "renounceOwnership",
      "outputs": [],
      "stateMutability": "nonpayable",
      "type": "function"
    },
    {
      "inputs": [
        {
          "internalType": "address",
          "name": "newOwner",
          "type": "address"
        }
      ],
      "name": "transferOwnership",
      "outputs": [],
      "stateMutability": "nonpayable",
      "type": "function"
    },
    {
      "inputs": [
        {
          "internalType": "string",
          "name": "_title",
          "type": "string"
        },
        {
          "internalType": "string",
          "name": "_descriptionCID",
          "type": "string"
        },
        {
          "internalType": "uint256",
          "name": "_budget",
          "type": "uint256"
        }
      ],
      "name": "postJob",
      "outputs": [],
      "stateMutability": "nonpayable",
      "type": "function"
    },
    {
      "inputs": [
        {
          "internalType": "uint256",
          "name": "_jobId",
          "type": "uint256"
        }
      ],
      "name": "escrowFunds",
      "outputs": [],
      "stateMutability": "payable",
      "type": "function",
      "payable": true
    },
    {
      "inputs": [
        {
          "internalType": "uint256",
          "name": "_jobId",
          "type": "uint256"
        },
        {
          "internalType": "string",
          "name": "_applicationCID",
          "type": "string"
        }
      ],
      "name": "submitApplication",
      "outputs": [],
      "stateMutability": "nonpayable",
      "type": "function"
    },
    {
      "inputs": [
        {
          "internalType": "uint256",
          "name": "_jobId",
          "type": "uint256"
        },
        {
          "internalType": "address payable",
          "name": "_freelancer",
          "type": "address"
        }
      ],
      "name": "assignJob",
      "outputs": [],
      "stateMutability": "nonpayable",
      "type": "function"
    },
    {
      "inputs": [
        {
          "internalType": "uint256",
          "name": "_jobId",
          "type": "uint256"
        }
      ],
      "name": "markWorkDone",
      "outputs": [],
      "stateMutability": "nonpayable",
      "type": "function"
    },
    {
      "inputs": [
        {
          "internalType": "uint256",
          "name": "_jobId",
          "type": "uint256"
        }
      ],
      "name": "releasePayment",
      "outputs": [],
      "stateMutability": "nonpayable",
      "type": "function"
    },
    {
      "inputs": [
        {
          "internalType": "uint256",
          "name": "_jobId",
          "type": "uint256"
        }
      ],
      "name": "refundEmployer",
      "outputs": [],
      "stateMutability": "nonpayable",
      "type": "function"
    },
    {
      "inputs": [
        {
          "internalType": "uint256",
          "name": "_jobId",
          "type": "uint256"
        }
      ],
      "name": "deleteJob",
      "outputs": [],
      "stateMutability": "nonpayable",
      "type": "function"
    },
    {
      "inputs": [
        {
          "internalType": "uint256",
          "name": "_jobId",
          "type": "uint256"
        }
      ],
      "name": "withdrawApplication",
      "outputs": [],
      "stateMutability": "nonpayable",
      "type": "function"
    },
    {
      "inputs": [
        {
          "internalType": "uint256",
          "name": "_jobId",
          "type": "uint256"
        }
      ],
      "name": "raiseDispute",
      "outputs": [],
      "stateMutability": "nonpayable",
      "type": "function"
    },
    {
      "inputs": [
        {
          "internalType": "uint256",
          "name": "_jobId",
          "type": "uint256"
        },
        {
          "internalType": "bool",
          "name": "_awardToFreelancer",
          "type": "bool"
        }
      ],
      "name": "resolveDispute",
      "outputs": [],
      "stateMutability": "nonpayable",
      "type": "function"
    },
    {
      "inputs": [],
      "name": "getJobCount",
      "outputs": [
        {
          "internalType": "uint256",
          "name": "",
          "type": "uint256"
        }
      ],
      "stateMutability": "view",
      "type": "function",
      "constant": true
    },
    {
      "inputs": [
        {
          "internalType": "uint256",
          "name": "_jobId",
          "type": "uint256"
        }
      ],
      "name": "getJob",
      "outputs": [
        {
          "components": [
            {
              "internalType": "uint256",
              "name": "id",
              "type": "uint256"
            },
            {
              "internalType": "string",
              "name": "title",
              "type": "string"
            },
            {
              "internalType": "string",
              "name": "descriptionCID",
              "type": "string"
            },
            {
              "internalType": "uint256",
              "name": "budget",
              "type": "uint256"
            },
            {
              "internalType": "address payable",
              "name": "employer",
              "type": "address"
            },
            {
              "internalType": "address payable",
              "name": "freelancer",
              "type": "address"
            },
            {
              "internalType": "enum JobBoard.JobStatus",
              "name": "status",
              "type": "uint8"
            },
            {
              "internalType": "uint256",
              "name": "escrowTime",
              "type": "uint256"
            }
          ],
          "internalType": "struct JobBoard.Job",
          "name": "",
          "type": "tuple"
        }
      ],
      "stateMutability": "view",
      "type": "function",
      "constant": true
    },
    {
      "inputs": [
        {
          "internalType": "uint256",
          "name": "_jobId",
          "type": "uint256"
        }
      ],
      "name": "getEscrowAmount",
      "outputs": [
        {
          "internalType": "uint256",
          "name": "",
          "type": "uint256"
        }
      ],
      "stateMutability": "view",
      "type": "function",
      "constant": true
    }
  ],
  "bytecode": "0x608060405234801562000010575f80fd5b5060015f5533806200003b57604051631e4fbdf760e01b81525f600482015260240160405180910390fd5b62000046816200004d565b506200009e565b600180546001600160a01b038381166001600160a01b0319831681179093556040519116919082907f8be0079c531659141344cd1fd0a4f28419497f9722a3daafe3b4186f6b6457e0905f90a35050565b612ba780620000ac5f395ff3fe608060405260043610610126575f3560e01c806388685cd9116100a8578063bf22c4571161006d578063bf22c45714610305578063bfd3487d14610331578063df7903ea14610350578063f1d5314a1461036f578063f2fde38b1461038e578063f3a4735a146103ad575f80fd5b806388685cd9146102615780638da5cb5b14610280578063a5c1674e146102a7578063b02b4a2f146102c6578063b489e147146102da575f80fd5b8063451ee191116100ee578063451ee191146101db5780634c5d8a0f146101fa5780635c3b9c4a1461020f5780636358bb8c1461022e578063715018a61461024d575f80fd5b806309fd8d301461012a578063180aedf31461014b578063190da5951461018757806334013c40146101a957806334b25ee2146101bc575b5f80fd5b348015610135575f80fd5b506101496101443660046125d1565b6103cc565b005b348015610156575f80fd5b5061016a610165366004612615565b610638565b60405161017e9897969594939291906126a3565b60405180910390f35b348015610192575f80fd5b5061019b603c81565b60405190815260200161017e565b6101496101b7366004612615565b610798565b3480156101c7575f80fd5b506101496101d6366004612712565b6109d2565b3480156101e6575f80fd5b5061019b6101f5366004612615565b610db8565b348015610205575f80fd5b5061019b60025481565b34801561021a575f80fd5b50610149610229366004612744565b610e49565b348015610239575f80fd5b50610149610248366004612615565b6110a9565b348015610258575f80fd5b50610149611304565b34801561026c575f80fd5b5061014961027b366004612615565b611317565b34801561028b575f80fd5b506001546040516001600160a01b03909116815260200161017e565b3480156102b2575f80fd5b506101496102c1366004612615565b61163d565b3480156102d1575f80fd5b5060025461019b565b3480156102e5575f80fd5b5061019b6102f4366004612615565b60046020525f908152604090205481565b348015610310575f80fd5b5061032461031f366004612615565b611837565b60405161017e91906127ac565b34801561033c575f80fd5b5061014961034b366004612615565b611a71565b34801561035b575f80fd5b5061014961036a366004612615565b611bf3565b34801561037a575f80fd5b50610149610389366004612615565b611f4c565b348015610399575f80fd5b506101496103a8366004612865565b6120ec565b3480156103b8575f80fd5b506101496103c7366004612887565b612129565b815f811180156103de57506002548111155b6104035760405162461bcd60e51b81526004016103fa906128aa565b60405180910390fd5b60065f82815260036020526040902060050154600160a01b900460ff1660068111156104315761043161266f565b0361044e5760405162461bcd60e51b81526004016103fa906128e1565b5f838152600360205260408120906005820154600160a01b900460ff16600681111561047c5761047c61266f565b146104d95760405162461bcd60e51b815260206004820152602760248201527f4a6f62426f6172643a204a6f62206e6f74206f70656e20666f72206170706c69604482015266636174696f6e7360c81b60648201526084016103fa565b60038101545f85815260046020526040902054146105395760405162461bcd60e51b815260206004820152601c60248201527f4a6f62426f6172643a2046756e6473206e6f7420657363726f7765640000000060448201526064016103fa565b60048101546001600160a01b031633036105955760405162461bcd60e51b815260206004820152601f60248201527f4a6f62426f6172643a20456d706c6f7965722063616e6e6f74206170706c790060448201526064016103fa565b5f8351116105f05760405162461bcd60e51b815260206004820152602260248201527f4a6f62426f6172643a204170706c69636174696f6e2043494420726571756972604482015261195960f21b60648201526084016103fa565b336001600160a01b0316847f6a609ccc4611ec81e11a54d8937b9e000bbb05c7743ac8ad14aaf1696699549a8560405161062a9190612918565b60405180910390a350505050565b60036020525f9081526040902080546001820180549192916106599061292a565b80601f01602080910402602001604051908101604052809291908181526020018280546106859061292a565b80156106d05780601f106106a7576101008083540402835291602001916106d0565b820191905f5260205f20905b8154815290600101906020018083116106b357829003601f168201915b5050505050908060020180546106e59061292a565b80601f01602080910402602001604051908101604052809291908181526020018280546107119061292a565b801561075c5780601f106107335761010080835404028352916020019161075c565b820191905f5260205f20905b81548152906001019060200180831161073f57829003601f168201915b50505050600383015460048401546005850154600690950154939491936001600160a01b03918216935090821691600160a01b900460ff169088565b805f811180156107aa57506002548111155b6107c65760405162461bcd60e51b81526004016103fa906128aa565b60065f82815260036020526040902060050154600160a01b900460ff1660068111156107f4576107f461266f565b036108115760405162461bcd60e51b81526004016103fa906128e1565b5f8281526003602052604090206004015482906001600160a01b0316331461084b5760405162461bcd60e51b81526004016103fa9061295c565b5f838152600360205260408120906005820154600160a01b900460ff1660068111156108795761087961266f565b146108c65760405162461bcd60e51b815260206004820152601a60248201527f4a6f62426f6172643a204a6f62206d757374206265206f70656e00000000000060448201526064016103fa565b8060030154341461092a5760405162461bcd60e51b815260206004820152602860248201527f4a6f62426f6172643a2053656e7420455448206d757374206d61746368206a6f6044820152671888189d5919d95d60c21b60648201526084016103fa565b5f84815260046020526040902054156109855760405162461bcd60e51b815260206004820181905260248201527f4a6f62426f6172643a2046756e647320616c726561647920657363726f77656460448201526064016103fa565b5f8481526004602090815260409182902034908190554260068501559151918252339186917f2f3c4f27eb1db28d21f423c207ea1f397503ab0c3399982719e036d008398c58910161062a565b6109da61242c565b6109e2612459565b5f821180156109f357506002548211155b610a0f5760405162461bcd60e51b81526004016103fa906128aa565b5f828152600360209081526040808320600490925290912054600580830154600160a01b900460ff166006811115610a4957610a4961266f565b14610a965760405162461bcd60e51b815260206004820152601c60248201527f4a6f62426f6172643a204a6f62206e6f7420696e20646973707574650000000060448201526064016103fa565b5f8111610ae55760405162461bcd60e51b815260206004820152601c60248201527f4a6f62426f6172643a204e6f2066756e647320696e20657363726f770000000060448201526064016103fa565b5f848152600460205260408120819055808415610c585760058401546001600160a01b0316610b565760405162461bcd60e51b815260206004820181905260248201527f4a6f62426f6172643a204e6f20667265656c616e63657220746f20617761726460448201526064016103fa565b600584018054600360a01b60ff60a01b198216179091556040516001600160a01b039091169250829084905f81818185875af1925050503d805f8114610bb7576040519150601f19603f3d011682016040523d82523d5f602084013e610bbc565b606091505b50508091505080610c0f5760405162461bcd60e51b815260206004820181905260248201527f4a6f62426f6172643a2044697370757465207061796d656e74206661696c656460448201526064016103fa565b816001600160a01b0316867f21d71db5be59bb9fa133895586b7404307dd33fb93b16db09dc6f1d9d7d231b085604051610c4b91815260200190565b60405180910390a3610d59565b600484015460058501805460ff60a01b1916600160a21b1790556040516001600160a01b039091169250829084905f81818185875af1925050503d805f8114610cbc576040519150601f19603f3d011682016040523d82523d5f602084013e610cc1565b606091505b50508091505080610d145760405162461bcd60e51b815260206004820152601f60248201527f4a6f62426f6172643a204469737075746520726566756e64206661696c65640060448201526064016103fa565b816001600160a01b0316867f247610d3bde046554f9329011daf2554eeb232cd7627a9d22a04033084a6221485604051610d5091815260200190565b60405180910390a35b816001600160a01b0316336001600160a01b0316877f0db4b20cc119848dcb59f41527d8bc04945a341d861f69d3f693cd68cc532e6d86604051610d9f91815260200190565b60405180910390a450505050610db460015f55565b5050565b5f815f81118015610dcb57506002548111155b610de75760405162461bcd60e51b81526004016103fa906128aa565b60065f82815260036020526040902060050154600160a01b900460ff166006811115610e1557610e1561266f565b03610e325760405162461bcd60e51b81526004016103fa906128e1565b5f8381526004602052604090205491505b50919050565b5f835111610e995760405162461bcd60e51b815260206004820152601f60248201527f4a6f62426f6172643a205469746c652063616e6e6f7420626520656d7074790060448201526064016103fa565b5f825111610efb5760405162461bcd60e51b815260206004820152602960248201527f4a6f62426f6172643a204465736372697074696f6e204349442063616e6e6f7460448201526820626520656d70747960b81b60648201526084016103fa565b5f8111610f5a5760405162461bcd60e51b815260206004820152602760248201527f4a6f62426f6172643a20427564676574206d75737420626520677265617465726044820152660207468616e20360cc1b60648201526084016103fa565b60028054905f610f69836129b4565b9091555050600254604080516101008101825282815260208101869052908101849052606081018390523360808201525f60a0820181905260c082019081525f6020918201819052838152600382526040902082518155908201516001820190610fd39082612a19565b5060408201516002820190610fe89082612a19565b506060820151600382015560808201516004820180546001600160a01b03199081166001600160a01b039384161790915560a084015160058401805492831691909316908117835560c085015192916001600160a81b03191617600160a01b8360068111156110595761105961266f565b021790555060e08201518160060155905050336001600160a01b0316817f6e701c991596b35054fc54b175da04456f604588349048aaeaffc5030f25793d86858760405161062a93929190612ad5565b5f8181526003602052604090206004015481906001600160a01b031633146110e35760405162461bcd60e51b81526004016103fa9061295c565b6110eb612459565b5f821180156110fc57506002548211155b6111185760405162461bcd60e51b81526004016103fa906128aa565b5f828152600360209081526040808320600490925282205490916005830154600160a01b900460ff1660068111156111525761115261266f565b146111ab5760405162461bcd60e51b815260206004820152602360248201527f4a6f62426f6172643a2043616e206f6e6c792064656c657465204f50454e206a6044820152626f627360e81b60648201526084016103fa565b80156112ba575f8481526004602081905260408083208390559084015490516001600160a01b039091169083908381818185875af1925050503d805f811461120e576040519150601f19603f3d011682016040523d82523d5f602084013e611213565b606091505b50509050806112725760405162461bcd60e51b815260206004820152602560248201527f4a6f62426f6172643a20526566756e6420647572696e672064656c6574652066604482015264185a5b195960da1b60648201526084016103fa565b60048301546040518381526001600160a01b039091169086907f247610d3bde046554f9329011daf2554eeb232cd7627a9d22a04033084a622149060200160405180910390a3505b60058201805460ff60a01b1916600360a11b17905560405184907f9d1547ee47d6029c926be39107873e6e8dd1ab0aadb5689e89849713b1cb5e05905f90a25050610db460015f55565b61130c61242c565b6113155f612481565b565b805f8111801561132957506002548111155b6113455760405162461bcd60e51b81526004016103fa906128aa565b60065f82815260036020526040902060050154600160a01b900460ff1660068111156113735761137361266f565b036113905760405162461bcd60e51b81526004016103fa906128e1565b5f8281526003602052604090206004015482906001600160a01b031633146113ca5760405162461bcd60e51b81526004016103fa9061295c565b6113d2612459565b5f83815260036020908152604080832060049092529091205460026005830154600160a01b900460ff16600681111561140d5761140d61266f565b146114665760405162461bcd60e51b815260206004820152602360248201527f4a6f62426f6172643a204a6f62206e6f74206177616974696e6720617070726f6044820152621d985b60ea1b60648201526084016103fa565b60058201546001600160a01b03166114c05760405162461bcd60e51b815260206004820181905260248201527f4a6f62426f6172643a204e6f20667265656c616e6365722061737369676e656460448201526064016103fa565b8160030154811480156114d257505f81115b6115175760405162461bcd60e51b81526020600482015260166024820152754a6f62426f6172643a20457363726f7720697373756560501b60448201526064016103fa565b60058201805460ff60a01b1916600360a01b1781555f868152600460205260408082208290559154915190916001600160a01b03169083908381818185875af1925050503d805f8114611585576040519150601f19603f3d011682016040523d82523d5f602084013e61158a565b606091505b50509050806115e55760405162461bcd60e51b815260206004820152602160248201527f4a6f62426f6172643a205061796d656e74207472616e73666572206661696c656044820152601960fa1b60648201526084016103fa565b60058301546040518381526001600160a01b039091169087907f21d71db5be59bb9fa133895586b7404307dd33fb93b16db09dc6f1d9d7d231b0906020015b60405180910390a350505061163860015f55565b505050565b805f8111801561164f57506002548111155b61166b5760405162461bcd60e51b81526004016103fa906128aa565b60065f82815260036020526040902060050154600160a01b900460ff1660068111156116995761169961266f565b036116b65760405162461bcd60e51b81526004016103fa906128e1565b5f82815260036020526040902060048101546001600160a01b03163314806116ea575060058101546001600160a01b031633145b61174c5760405162461bcd60e51b815260206004820152602d60248201527f4a6f62426f6172643a204f6e6c79207061727469636970616e74732063616e2060448201526c7261697365206469737075746560981b60648201526084016103fa565b60016005820154600160a01b900460ff16600681111561176e5761176e61266f565b1480611799575060026005820154600160a01b900460ff1660068111156117975761179761266f565b145b6117f15760405162461bcd60e51b8152602060048201526024808201527f4a6f62426f6172643a20496e76616c69642073746174757320666f72206469736044820152637075746560e01b60648201526084016103fa565b60058101805460ff60a01b1916600560a01b179055604051339084907f84a477df8a28a4276ca6dee4458a06c3015f30c477d9c949ede4e13ff8a552b4905f90a3505050565b61183f6124d2565b815f8111801561185157506002548111155b61186d5760405162461bcd60e51b81526004016103fa906128aa565b60065f82815260036020526040902060050154600160a01b900460ff16600681111561189b5761189b61266f565b036118b85760405162461bcd60e51b81526004016103fa906128e1565b60035f8481526020019081526020015f20604051806101000160405290815f82015481526020016001820180546118ee9061292a565b80601f016020809104026020016040519081016040528092919081815260200182805461191a9061292a565b80156119655780601f1061193c57610100808354040283529160200191611965565b820191905f5260205f20905b81548152906001019060200180831161194857829003601f168201915b5050505050815260200160028201805461197e9061292a565b80601f01602080910402602001604051908101604052809291908181526020018280546119aa9061292a565b80156119f55780601f106119cc576101008083540402835291602001916119f5565b820191905f5260205f20905b8154815290600101906020018083116119d857829003601f168201915b50505091835250506003820154602082015260048201546001600160a01b03908116604083015260058301549081166060830152608090910190600160a01b900460ff166006811115611a4a57611a4a61266f565b6006811115611a5b57611a5b61266f565b8152602001600682015481525050915050919050565b805f81118015611a8357506002548111155b611a9f5760405162461bcd60e51b81526004016103fa906128aa565b60065f82815260036020526040902060050154600160a01b900460ff166006811115611acd57611acd61266f565b03611aea5760405162461bcd60e51b81526004016103fa906128e1565b5f8281526003602052604090206005015482906001600160a01b03163314611b245760405162461bcd60e51b81526004016103fa90612b09565b611b2c612459565b5f83815260036020526040902060016005820154600160a01b900460ff166006811115611b5b57611b5b61266f565b14611ba85760405162461bcd60e51b815260206004820152601e60248201527f4a6f62426f6172643a204a6f62206d7573742062652041535349474e4544000060448201526064016103fa565b60058101805460ff60a01b1916600160a11b179055604051339085907f2e1034180f85502b3a04560be6ed4c24fe9b9c9e0bd7f4e09720494ac48859fa905f90a35061163860015f55565b805f81118015611c0557506002548111155b611c215760405162461bcd60e51b81526004016103fa906128aa565b60065f82815260036020526040902060050154600160a01b900460ff166006811115611c4f57611c4f61266f565b03611c6c5760405162461bcd60e51b81526004016103fa906128e1565b5f8281526003602052604090206004015482906001600160a01b03163314611ca65760405162461bcd60e51b81526004016103fa9061295c565b611cae612459565b5f838152600360209081526040808320600490925282205490916005830154600160a01b900460ff166006811115611ce857611ce861266f565b14611d355760405162461bcd60e51b815260206004820152601a60248201527f4a6f62426f6172643a204a6f62206d757374206265204f50454e00000000000060448201526064016103fa565b5f8111611d845760405162461bcd60e51b815260206004820152601b60248201527f4a6f62426f6172643a204e6f2066756e647320657363726f776564000000000060448201526064016103fa565b5f826006015411611dd75760405162461bcd60e51b815260206004820152601e60248201527f4a6f62426f6172643a2046756e6473206e6576657220657363726f776564000060448201526064016103fa565b603c8260060154611de89190612b58565b421015611e415760405162461bcd60e51b815260206004820152602160248201527f4a6f62426f6172643a20526566756e642064656c6179206e6f742070617373656044820152601960fa1b60648201526084016103fa565b60058201805460ff60a01b1916600160a21b1790555f8581526004602081905260408083208390559084015490516001600160a01b039091169083908381818185875af1925050503d805f8114611eb3576040519150601f19603f3d011682016040523d82523d5f602084013e611eb8565b606091505b5050905080611f095760405162461bcd60e51b815260206004820181905260248201527f4a6f62426f6172643a20526566756e64207472616e73666572206661696c656460448201526064016103fa565b60048301546040518381526001600160a01b039091169087907f247610d3bde046554f9329011daf2554eeb232cd7627a9d22a04033084a6221490602001611624565b805f81118015611f5e57506002548111155b611f7a5760405162461bcd60e51b81526004016103fa906128aa565b60065f82815260036020526040902060050154600160a01b900460ff166006811115611fa857611fa861266f565b03611fc55760405162461bcd60e51b81526004016103fa906128e1565b5f8281526003602052604090206005015482906001600160a01b03163314611fff5760405162461bcd60e51b81526004016103fa90612b09565b612007612459565b5f83815260036020526040902060016005820154600160a01b900460ff1660068111156120365761203661266f565b146120955760405162461bcd60e51b815260206004820152602960248201527f4a6f62426f6172643a2043616e206f6e6c79207769746864726177207768656e604482015268081054d4d251d3915160ba1b60648201526084016103fa565b6005810180546001600160a81b031981169091556040516001600160a01b0390911690819086907ffe04c59a8c008d30c6c5a29803674c8841e2045dff8ac56b3cad0e3182d998ec905f90a3505061163860015f55565b6120f461242c565b6001600160a01b03811661211d57604051631e4fbdf760e01b81525f60048201526024016103fa565b61212681612481565b50565b815f8111801561213b57506002548111155b6121575760405162461bcd60e51b81526004016103fa906128aa565b60065f82815260036020526040902060050154600160a01b900460ff1660068111156121855761218561266f565b036121a25760405162461bcd60e51b81526004016103fa906128e1565b5f8381526003602052604090206004015483906001600160a01b031633146121dc5760405162461bcd60e51b81526004016103fa9061295c565b5f848152600360205260408120906005820154600160a01b900460ff16600681111561220a5761220a61266f565b146122575760405162461bcd60e51b815260206004820152601a60248201527f4a6f62426f6172643a204a6f62206d757374206265204f50454e00000000000060448201526064016103fa565b60058101546001600160a01b0316156122b25760405162461bcd60e51b815260206004820152601e60248201527f4a6f62426f6172643a204a6f6220616c72656164792061737369676e6564000060448201526064016103fa565b60038101545f86815260046020526040902054146123125760405162461bcd60e51b815260206004820181905260248201527f4a6f62426f6172643a2046756e6473206d75737420626520657363726f77656460448201526064016103fa565b6001600160a01b0384166123745760405162461bcd60e51b8152602060048201526024808201527f4a6f62426f6172643a20496e76616c696420667265656c616e636572206164646044820152637265737360e01b60648201526084016103fa565b60048101546001600160a01b03908116908516036123d45760405162461bcd60e51b815260206004820181905260248201527f4a6f62426f6172643a2043616e6e6f742061737369676e20656d706c6f79657260448201526064016103fa565b6005810180546001600160a01b0386166001600160a81b03199091168117600160a01b1790915560405186907f3738a681a43a0b6a554742a08bae57e0215e8a774217dc2e7de6c9411b6d0ddc905f90a35050505050565b6001546001600160a01b031633146113155760405163118cdaa760e01b81523360048201526024016103fa565b60025f540361247b57604051633ee5aeb560e01b815260040160405180910390fd5b60025f55565b600180546001600160a01b038381166001600160a01b0319831681179093556040519116919082907f8be0079c531659141344cd1fd0a4f28419497f9722a3daafe3b4186f6b6457e0905f90a35050565b6040518061010001604052805f815260200160608152602001606081526020015f81526020015f6001600160a01b031681526020015f6001600160a01b031681526020015f60068111156125285761252861266f565b81526020015f81525090565b634e487b7160e01b5f52604160045260245ffd5b5f82601f830112612557575f80fd5b813567ffffffffffffffff8082111561257257612572612534565b604051601f8301601f19908116603f0116810190828211818310171561259a5761259a612534565b816040528381528660208588010111156125b2575f80fd5b836020870160208301375f602085830101528094505050505092915050565b5f80604083850312156125e2575f80fd5b82359150602083013567ffffffffffffffff8111156125ff575f80fd5b61260b85828601612548565b9150509250929050565b5f60208284031215612625575f80fd5b5035919050565b5f81518084525f5b8181101561265057602081850181015186830182015201612634565b505f602082860101526020601f19601f83011685010191505092915050565b634e487b7160e01b5f52602160045260245ffd5b6007811061269f57634e487b7160e01b5f52602160045260245ffd5b9052565b5f6101008a83528060208401526126bc8184018b61262c565b905082810360408401526126d0818a61262c565b606084018990526001600160a01b038881166080860152871660a085015291506126ff905060c0830185612683565b8260e08301529998505050505050505050565b5f8060408385031215612723575f80fd5b8235915060208301358015158114612739575f80fd5b809150509250929050565b5f805f60608486031215612756575f80fd5b833567ffffffffffffffff8082111561276d575f80fd5b61277987838801612548565b9450602086013591508082111561278e575f80fd5b5061279b86828701612548565b925050604084013590509250925092565b60208152815160208201525f60208301516101008060408501526127d461012085018361262c565b91506040850151601f198584030160608601526127f1838261262c565b9250506060850151608085015260018060a01b0360808601511660a085015260a085015161282a60c08601826001600160a01b03169052565b5060c085015161283d60e0860182612683565b5060e0949094015192909301919091525090565b6001600160a01b0381168114612126575f80fd5b5f60208284031215612875575f80fd5b813561288081612851565b9392505050565b5f8060408385031215612898575f80fd5b82359150602083013561273981612851565b6020808252601c908201527f4a6f62426f6172643a204a6f6220646f6573206e6f7420657869737400000000604082015260600190565b6020808252601e908201527f4a6f62426f6172643a204a6f6220686173206265656e2064656c657465640000604082015260600190565b602081525f612880602083018461262c565b600181811c9082168061293e57607f821691505b602082108103610e4357634e487b7160e01b5f52602260045260245ffd5b60208082526024908201527f4a6f62426f6172643a2043616c6c6572206973206e6f742074686520656d706c60408201526337bcb2b960e11b606082015260800190565b634e487b7160e01b5f52601160045260245ffd5b5f600182016129c5576129c56129a0565b5060010190565b601f821115611638575f81815260208120601f850160051c810160208610156129f25750805b601f850160051c820191505b81811015612a11578281556001016129fe565b505050505050565b815167ffffffffffffffff811115612a3357612a33612534565b612a4781612a41845461292a565b846129cc565b602080601f831160018114612a7a575f8415612a635750858301515b5f19600386901b1c1916600185901b178555612a11565b5f85815260208120601f198616915b82811015612aa857888601518255948401946001909101908401612a89565b5085821015612ac557878501515f19600388901b60f8161c191681555b5050505050600190811b01905550565b606081525f612ae7606083018661262c565b8460208401528281036040840152612aff818561262c565b9695505050505050565b6020808252602f908201527f4a6f62426f6172643a2043616c6c6572206973206e6f7420746865206173736960408201526e33b732b210333932b2b630b731b2b960891b606082015260800190565b80820180821115612b6b57612b6b6129a0565b9291505056fea2646970667358221220b8792166586ba7a52b980cf0c35e93c324c73e824133868f915fb2ca2c82a89764736f6c63430008150033",
  "immutableReferences": {},
  "source": "// SPDX-License-Identifier: MIT\r\npragma solidity ^0.8.21;\r\n\r\n// Import ReentrancyGuard for security and Ownable for admin control\r\nimport \"@openzeppelin/contracts/utils/ReentrancyGuard.sol\";\r\nimport \"@openzeppelin/contracts/access/Ownable.sol\";\r\n\r\n/**\r\n * @title JobBoard\r\n * @dev Handles job postings, applications (via events), assignment, escrow,\r\n * work submission, payment, refunds, disputes, deletion, and withdrawal.\r\n * Descriptions and Application Details stored off-chain (IPFS CIDs).\r\n */\r\ncontract JobBoard is ReentrancyGuard, Ownable {\r\n\r\n    // Enum defining the possible states of a job\r\n    enum JobStatus { OPEN, ASSIGNED, AWAITING_APPROVAL, COMPLETED, REFUNDED, DISPUTED, DELETED }\r\n\r\n    // Struct representing a job posting\r\n    struct Job {\r\n        uint256 id;\r\n        string title;\r\n        string descriptionCID;  // IPFS CID for the job description\r\n        uint256 budget;\r\n        address payable employer;\r\n        // Freelancer is set only when assigned by employer\r\n        address payable freelancer;\r\n        JobStatus status;\r\n        uint256 escrowTime;     // Timestamp when funds were escrowed\r\n    }\r\n\r\n    uint256 public jobCount; // Counter for total jobs posted\r\n    mapping(uint256 => Job) public jobs; // Mapping from job ID to Job struct\r\n    mapping(uint256 => uint256) public escrowedFunds; // Mapping from job ID to escrowed amount\r\n\r\n    // Refund delay set to 1 minute as requested\r\n    uint256 public constant REFUND_DELAY = 1 minutes;\r\n\r\n    // --- Events ---\r\n    event JobPosted(uint256 indexed jobId, address indexed employer, string title, uint256 budget, string descriptionCID);\r\n    event JobAssigned(uint256 indexed jobId, address indexed freelancer); // Renamed from JobApplied\r\n    event ApplicationSubmitted(uint256 indexed jobId, address indexed applicant, string applicationCID); // For tracking applications\r\n    event PaymentEscrowed(uint256 indexed jobId, address indexed employer, uint256 amount);\r\n    event PaymentReleased(uint256 indexed jobId, address indexed freelancer, uint256 amount);\r\n    event EmployerRefunded(uint256 indexed jobId, address indexed employer, uint256 amount);\r\n    event DisputeRaised(uint256 indexed jobId, address indexed initiator);\r\n    event DisputeResolved(uint256 indexed jobId, address indexed admin, address indexed winner, uint256 amount);\r\n    event WorkSubmitted(uint256 indexed jobId, address indexed freelancer);\r\n    event JobDeleted(uint256 indexed jobId); // For deleting jobs\r\n    event ApplicationWithdrawn(uint256 indexed jobId, address indexed freelancer); // For withdrawing from assigned job\r\n\r\n\r\n    // --- Modifiers ---\r\n    modifier onlyEmployer(uint256 _jobId) {\r\n        require(msg.sender == jobs[_jobId].employer, \"JobBoard: Caller is not the employer\");\r\n        _;\r\n    }\r\n\r\n    modifier onlyFreelancer(uint256 _jobId) {\r\n        require(msg.sender == jobs[_jobId].freelancer, \"JobBoard: Caller is not the assigned freelancer\");\r\n        _;\r\n    }\r\n\r\n    // Modifier to check if job exists and is not deleted\r\n    modifier jobExistsAndActive(uint256 _jobId) {\r\n        require(_jobId > 0 && _jobId <= jobCount, \"JobBoard: Job does not exist\");\r\n        require(jobs[_jobId].status != JobStatus.DELETED, \"JobBoard: Job has been deleted\");\r\n        _;\r\n    }\r\n\r\n    constructor() Ownable(msg.sender) {}\r\n\r\n    // --- Core Functions ---\r\n\r\n    /**\r\n     * @notice Allows anyone to post a new job.\r\n     */\r\n    function postJob(\r\n        string memory _title,\r\n        string memory _descriptionCID,\r\n        uint256 _budget\r\n    ) public {\r\n        require(bytes(_title).length > 0, \"JobBoard: Title cannot be empty\");\r\n        require(bytes(_descriptionCID).length > 0, \"JobBoard: Description CID cannot be empty\");\r\n        require(_budget > 0, \"JobBoard: Budget must be greater than 0\");\r\n\r\n        jobCount++;\r\n        uint256 currentJobId = jobCount;\r\n\r\n        jobs[currentJobId] = Job({\r\n            id: currentJobId, title: _title, descriptionCID: _descriptionCID,\r\n            budget: _budget, employer: payable(msg.sender), freelancer: payable(address(0)),\r\n            status: JobStatus.OPEN, escrowTime: 0\r\n        });\r\n\r\n        emit JobPosted(currentJobId, msg.sender, _title, _budget, _descriptionCID);\r\n    }\r\n\r\n    /**\r\n     * @notice Allows the employer to escrow the payment for an open job.\r\n     */\r\n    function escrowFunds(uint256 _jobId) public payable jobExistsAndActive(_jobId) onlyEmployer(_jobId) {\r\n        Job storage job = jobs[_jobId];\r\n        require(job.status == JobStatus.OPEN, \"JobBoard: Job must be open\");\r\n        require(msg.value == job.budget, \"JobBoard: Sent ETH must match job budget\");\r\n        require(escrowedFunds[_jobId] == 0, \"JobBoard: Funds already escrowed\");\r\n\r\n        escrowedFunds[_jobId] = msg.value;\r\n        job.escrowTime = block.timestamp;\r\n        emit PaymentEscrowed(_jobId, msg.sender, msg.value);\r\n    }\r\n\r\n     /**\r\n     * @notice Allows any potential freelancer to submit their application details (via IPFS CID).\r\n     */\r\n    function submitApplication(uint256 _jobId, string memory _applicationCID) public jobExistsAndActive(_jobId) {\r\n        Job storage job = jobs[_jobId];\r\n        require(job.status == JobStatus.OPEN, \"JobBoard: Job not open for applications\");\r\n        require(escrowedFunds[_jobId] == job.budget, \"JobBoard: Funds not escrowed\");\r\n        require(msg.sender != job.employer, \"JobBoard: Employer cannot apply\");\r\n        require(bytes(_applicationCID).length > 0, \"JobBoard: Application CID required\");\r\n\r\n        emit ApplicationSubmitted(_jobId, msg.sender, _applicationCID);\r\n    }\r\n\r\n    /**\r\n     * @notice Allows the employer to assign a freelancer to an open, escrowed job.\r\n     */\r\n    function assignJob(uint256 _jobId, address payable _freelancer) public jobExistsAndActive(_jobId) onlyEmployer(_jobId) {\r\n        Job storage job = jobs[_jobId];\r\n        require(job.status == JobStatus.OPEN, \"JobBoard: Job must be OPEN\");\r\n        require(job.freelancer == address(0), \"JobBoard: Job already assigned\");\r\n        require(escrowedFunds[_jobId] == job.budget, \"JobBoard: Funds must be escrowed\");\r\n        require(_freelancer != address(0), \"JobBoard: Invalid freelancer address\");\r\n        require(_freelancer != job.employer, \"JobBoard: Cannot assign employer\");\r\n\r\n        job.freelancer = _freelancer;\r\n        job.status = JobStatus.ASSIGNED;\r\n        emit JobAssigned(_jobId, _freelancer);\r\n    }\r\n\r\n   /**\r\n    * @notice Allows the assigned freelancer to mark work as completed (ready for approval).\r\n    */\r\n    function markWorkDone(uint256 _jobId) public jobExistsAndActive(_jobId) onlyFreelancer(_jobId) nonReentrant {\r\n        Job storage job = jobs[_jobId];\r\n        require(job.status == JobStatus.ASSIGNED, \"JobBoard: Job must be ASSIGNED\");\r\n        job.status = JobStatus.AWAITING_APPROVAL;\r\n        emit WorkSubmitted(_jobId, msg.sender);\r\n    }\r\n\r\n    /**\r\n     * @notice Allows the employer to release escrowed payment after work submission.\r\n     */\r\n    function releasePayment(uint256 _jobId) public jobExistsAndActive(_jobId) onlyEmployer(_jobId) nonReentrant {\r\n        Job storage job = jobs[_jobId];\r\n        uint256 amount = escrowedFunds[_jobId];\r\n        require(job.status == JobStatus.AWAITING_APPROVAL, \"JobBoard: Job not awaiting approval\");\r\n        require(job.freelancer != address(0), \"JobBoard: No freelancer assigned\");\r\n        require(amount == job.budget && amount > 0, \"JobBoard: Escrow issue\");\r\n\r\n        job.status = JobStatus.COMPLETED;\r\n        escrowedFunds[_jobId] = 0;\r\n        (bool success, ) = job.freelancer.call{value: amount}(\"\");\r\n        require(success, \"JobBoard: Payment transfer failed\");\r\n        emit PaymentReleased(_jobId, job.freelancer, amount);\r\n    }\r\n\r\n    /**\r\n     * @notice Allows the employer to get a refund for an OPEN job after a delay.\r\n     */\r\n    function refundEmployer(uint256 _jobId) public jobExistsAndActive(_jobId) onlyEmployer(_jobId) nonReentrant {\r\n        Job storage job = jobs[_jobId];\r\n        uint256 amount = escrowedFunds[_jobId];\r\n        require(job.status == JobStatus.OPEN, \"JobBoard: Job must be OPEN\");\r\n        require(amount > 0, \"JobBoard: No funds escrowed\");\r\n        require(job.escrowTime > 0, \"JobBoard: Funds never escrowed\");\r\n        require(block.timestamp >= job.escrowTime + REFUND_DELAY, \"JobBoard: Refund delay not passed\"); // Uses 1 min delay\r\n\r\n        job.status = JobStatus.REFUNDED;\r\n        escrowedFunds[_jobId] = 0;\r\n        (bool success, ) = job.employer.call{value: amount}(\"\");\r\n        require(success, \"JobBoard: Refund transfer failed\");\r\n        emit EmployerRefunded(_jobId, job.employer, amount);\r\n    }\r\n\r\n    /**\r\n     * @notice Allows the employer to delete an OPEN job, refunding escrow if present.\r\n     */\r\n    function deleteJob(uint256 _jobId) public onlyEmployer(_jobId) nonReentrant {\r\n        // Check existence manually to handle status check correctly\r\n        require(_jobId > 0 && _jobId <= jobCount, \"JobBoard: Job does not exist\");\r\n        Job storage job = jobs[_jobId];\r\n        uint256 amount = escrowedFunds[_jobId];\r\n\r\n        require(job.status == JobStatus.OPEN, \"JobBoard: Can only delete OPEN jobs\");\r\n\r\n        if (amount > 0) {\r\n            escrowedFunds[_jobId] = 0;\r\n            (bool success, ) = job.employer.call{value: amount}(\"\");\r\n            require(success, \"JobBoard: Refund during delete failed\");\r\n            emit EmployerRefunded(_jobId, job.employer, amount);\r\n        }\r\n        job.status = JobStatus.DELETED;\r\n        emit JobDeleted(_jobId);\r\n    }\r\n\r\n    /**\r\n     * @notice Allows the assigned freelancer to withdraw their application (unassign).\r\n     */\r\n    function withdrawApplication(uint256 _jobId) public jobExistsAndActive(_jobId) onlyFreelancer(_jobId) nonReentrant {\r\n        Job storage job = jobs[_jobId];\r\n        require(job.status == JobStatus.ASSIGNED, \"JobBoard: Can only withdraw when ASSIGNED\");\r\n\r\n        address freelancerAddress = job.freelancer;\r\n        job.freelancer = payable(address(0));\r\n        job.status = JobStatus.OPEN; // Job becomes open again\r\n        emit ApplicationWithdrawn(_jobId, freelancerAddress);\r\n    }\r\n\r\n    /**\r\n     * @notice Allows employer or freelancer to raise a dispute on ASSIGNED or AWAITING_APPROVAL jobs.\r\n     */\r\n    function raiseDispute(uint256 _jobId) public jobExistsAndActive(_jobId) {\r\n        Job storage job = jobs[_jobId];\r\n        require(msg.sender == job.employer || msg.sender == job.freelancer, \"JobBoard: Only participants can raise dispute\");\r\n        require(job.status == JobStatus.ASSIGNED || job.status == JobStatus.AWAITING_APPROVAL, \"JobBoard: Invalid status for dispute\");\r\n        job.status = JobStatus.DISPUTED;\r\n        emit DisputeRaised(_jobId, msg.sender);\r\n    }\r\n\r\n    /**\r\n     * @notice Allows the contract owner (admin) to resolve a dispute.\r\n     */\r\n    function resolveDispute(uint256 _jobId, bool _awardToFreelancer) public onlyOwner nonReentrant {\r\n        // Admin might need to resolve jobs even if marked deleted, so don't use jobExistsAndActive\r\n         require(_jobId > 0 && _jobId <= jobCount, \"JobBoard: Job does not exist\");\r\n        Job storage job = jobs[_jobId];\r\n        uint256 amount = escrowedFunds[_jobId];\r\n        require(job.status == JobStatus.DISPUTED, \"JobBoard: Job not in dispute\");\r\n        require(amount > 0, \"JobBoard: No funds in escrow\");\r\n\r\n        escrowedFunds[_jobId] = 0;\r\n        address payable winner;\r\n        bool success;\r\n        if (_awardToFreelancer) {\r\n            require(job.freelancer != address(0), \"JobBoard: No freelancer to award\");\r\n            winner = job.freelancer;\r\n            job.status = JobStatus.COMPLETED; // Final status\r\n            (success, ) = winner.call{value: amount}(\"\");\r\n            require(success, \"JobBoard: Dispute payment failed\");\r\n            emit PaymentReleased(_jobId, winner, amount);\r\n        } else {\r\n            winner = job.employer;\r\n            job.status = JobStatus.REFUNDED; // Final status\r\n            (success, ) = winner.call{value: amount}(\"\");\r\n            require(success, \"JobBoard: Dispute refund failed\");\r\n            emit EmployerRefunded(_jobId, winner, amount);\r\n        }\r\n        emit DisputeResolved(_jobId, msg.sender, winner, amount);\r\n    }\r\n\r\n    // --- View Functions ---\r\n    function getJobCount() public view returns (uint256) { return jobCount; }\r\n    function getJob(uint256 _jobId) public view jobExistsAndActive(_jobId) returns (Job memory) { return jobs[_jobId]; }\r\n    function getEscrowAmount(uint256 _jobId) public view jobExistsAndActive(_jobId) returns (uint256) { return escrowedFunds[_jobId]; }\r\n}",
  "sourcePath": "E:\\DecentralizedJobPortal\\backend\\contracts\\JobBoard.sol",
  "compiler": {
    "name": "solc",
    "version": "0.8.21+commit.d9974bed.Emscripten.clang"
  },
  "schemaVersion": "3.4.16",
  "updatedAt": "2025-04-30T16:03:59.773Z",
  "networkType": "ethereum",
  "devdoc": {
    "details": "Handles job postings, applications (via events), assignment, escrow, work submission, payment, refunds, disputes, deletion, and withdrawal. Descriptions and Application Details stored off-chain (IPFS CIDs).",
    "errors": {
      "OwnableInvalidOwner(address)": [
        {
          "details": "The owner is not a valid owner account. (eg. `address(0)`)"
        }
      ],
      "OwnableUnauthorizedAccount(address)": [
        {
          "details": "The caller account is not authorized to perform an operation."
        }
      ],
      "ReentrancyGuardReentrantCall()": [
        {
          "details": "Unauthorized reentrant call."
        }
      ]
    },
    "kind": "dev",
    "methods": {
      "owner()": {
        "details": "Returns the address of the current owner."
      },
      "renounceOwnership()": {
        "details": "Leaves the contract without owner. It will not be possible to call `onlyOwner` functions. Can only be called by the current owner. NOTE: Renouncing ownership will leave the contract without an owner, thereby disabling any functionality that is only available to the owner."
      },
      "transferOwnership(address)": {
        "details": "Transfers ownership of the contract to a new account (`newOwner`). Can only be called by the current owner."
      }
    },
    "title": "JobBoard",
    "version": 1
  },
  "userdoc": {
    "kind": "user",
    "methods": {
      "assignJob(uint256,address)": {
        "notice": "Allows the employer to assign a freelancer to an open, escrowed job."
      },
      "deleteJob(uint256)": {
        "notice": "Allows the employer to delete an OPEN job, refunding escrow if present."
      },
      "escrowFunds(uint256)": {
        "notice": "Allows the employer to escrow the payment for an open job."
      },
      "markWorkDone(uint256)": {
        "notice": "Allows the assigned freelancer to mark work as completed (ready for approval)."
      },
      "postJob(string,string,uint256)": {
        "notice": "Allows anyone to post a new job."
      },
      "raiseDispute(uint256)": {
        "notice": "Allows employer or freelancer to raise a dispute on ASSIGNED or AWAITING_APPROVAL jobs."
      },
      "refundEmployer(uint256)": {
        "notice": "Allows the employer to get a refund for an OPEN job after a delay."
      },
      "releasePayment(uint256)": {
        "notice": "Allows the employer to release escrowed payment after work submission."
      },
      "resolveDispute(uint256,bool)": {
        "notice": "Allows the contract owner (admin) to resolve a dispute."
      },
      "submitApplication(uint256,string)": {
        "notice": "Allows any potential freelancer to submit their application details (via IPFS CID)."
      },
      "withdrawApplication(uint256)": {
        "notice": "Allows the assigned freelancer to withdraw their application (unassign)."
      }
    },
    "version": 1
  }
}